:020000040800F2
:10000000C806002029020008A5130008D710000820
:10001000551200081704000893150008000000009E
:10002000000000000000000000000000A91300080C
:100030001904000800000000A7130008AB13000813
:10004000430200084302000843020008430200087C
:10005000430200084302000843020008430200086C
:10006000430200084302000843020008430200085C
:10007000430200084302000843020008430200084C
:10008000430200084302000843020008430200083C
:10009000430200084302000843020008430200082C
:1000A000430200084302000843020008430200081C
:1000B00043020008430200085514000843020008E8
:1000C00043020008430200084302000843020008FC
:1000D00043020008430200084302000843020008EC
:1000E00043020008430200084302000843020008DC
:1000F00043020008430200084302000843020008CC
:1001000043020008430200084302000843020008BB
:1001100043020008430200084302000843020008AB
:10012000430200084302000843020008430200089B
:100130004302000800000000000000004302000825
:10014000430200084302000843020008430200087B
:10015000430200084302000843020008430200086B
:10016000430200084302000843020008430200085B
:1001700043020008430200080000000000000000E5
:10018000430200084302000800F002F800F03CF8C7
:100190000AA090E8000C82448344AAF10107DA45E2
:1001A00001D100F031F8AFF2090EBAE80F0013F0F8
:1001B000010F18BFFB1A43F0010318473C1400005D
:1001C0005C140000103A24BF78C878C1FAD85207EE
:1001D00024BF30C830C144BF04680C6070470000C1
:1001E0000023002400250026103A28BF78C1FBD840
:1001F000520728BF30C148BF0B6070471FB501F0E0
:10020000EDF91FBD10B510BD00F0CFF81146FFF796
:10021000F5FF01F0CFF900F0EDF803B4FFF7F2FFBE
:1002200003BC00F0F1F80000094880470948004786
:10023000FEE7FEE7FEE7FEE7FEE7FEE7FEE7FEE796
:10024000FEE7FEE704480549054A064B70470000F3
:100250004514000889010008C8000020C8060020D5
:10026000C8020020C802002053EA020C00F0698096
:100270002DE9F04B4FF00006002B1FBFB3FA83F5BA
:1002800003FA05F424FA05F65E4012BF1643B2FAEB
:1002900082F502FA05F4C5F120051EBF22FA05FC1D
:1002A00044EA0C04203556EA044C4FEA144418BFC3
:1002B000641C4FF000084FF00009904271EB030CF2
:1002C00039D3002919BFB1FA81F701FA07F6B0FA5C
:1002D00080F700FA07F6C7F120071EBF20FA07FCD7
:1002E00046EA0C062037B6FBF4FCA7EB0507103FE7
:1002F00007F01F0BCBF120060CFA0BFB2CFA06F6CD
:1003000044BFB3460026202FA4BF5E464FF0000B2B
:100310005BEA060C08BF4FF0010B19EB0B09ABFBB6
:10032000027C48EB0608C01B06FB02CC0BFB03CC8F
:1003300071EB0C01C1E70B46024641464846BDE859
:10034000F08B13B54FF000004FF00001AFF30080C9
:10035000BDE81C4070474FF0000200B513469446BC
:100360009646203922BFA0E80C50A0E80C50B1F10D
:100370002001BFF4F7AF090728BFA0E80C5048BF21
:100380000CC05DF804EB890028BF40F8042B08BFBF
:10039000704748BF20F8022B11F0804F18BF00F8BB
:1003A000012B7047704770477047754600F028F87A
:1003B000AE4605006946534620F00700854618B052
:1003C00020B5FFF73FFFBDE820404FF000064FF09B
:1003D00000074FF000084FF0000B21F00701AC467A
:1003E000ACE8C009ACE8C009ACE8C009ACE8C00999
:1003F0008D4670470446AFF300802046FFF70DFF9F
:10040000004870476800002001491820ABBEFEE795
:10041000260002007047FEE7704772B6FEE7000054
:100420002DE9F84FDFF8BCA1002201250AF1040BE9
:1004300003264FF00F090BF1040E00BF0B6805FAFD
:1004400002F42340A34270D10F7907F00307012F74
:1004500001D0022F16D187684FEA420806FA08FC3D
:1004600027EA0C07D1F80CC00CFA08FC4CEA070C80
:10047000C0F808C04768A7430C79C4F3001494403F
:100480003C4344600C79E443A4070AD0C4684FEAB3
:10049000420C06FA0CF7BC438F6807FA0CF72743A7
:1004A000C7600C7904F00304022C12D1D40800EBCD
:1004B000840CDCF820405707FF0E09FA07F824EAFD
:1004C0000804D1F8108008FA07F848EA0408CCF8C4
:1004D000208004684FEA420C06FA0CF7BC430F79FF
:1004E00007F0030707FA0CF7274307604C6814F47A
:1004F000403F70D03C4C276847F480472760246811
:1005000022F0030704F480440094384C07EB040CF9
:10051000DCF8084897074FEA177809FA08F7BC4350
:10052000334FB84202D1002724E054E0314FB842A3
:1005300001D101271EE0304FB84201D1022719E056
:100540002E4FB84201D1032714E02D4FB84201D1FC
:1005500004270FE02B4FB84201D105270AE02A4FAC
:10056000B84201D1062705E0284FB84201D107273C
:1005700000E0082707FA08F72743CCF80878DAF8EC
:1005800000405746D1F804C09C435FEACC3C00D5FC
:100590001C433C60DBF800405F46D1F804C09C433C
:1005A0005FEA8C3C00D51C433C60DEF80040774697
:1005B000D1F804C09C435FEACC2C00D51C433C60BE
:1005C000084F0C373C68D1F804C09C435FEA8C2C80
:1005D00000D51C433C60521C102AFFF42FAFBDE82D
:1005E000F88F0000003C01404438024000300140D8
:1005F000000002400004024000080240000C0240DB
:10060000001002400014024000180240001C02408A
:100610000069084000D001207047426921EA0203C6
:100620000A4043EA0241816170470AB18161704723
:100630000904FBE7014880687047000010000020B3
:1006400002488168027811448160704710000020E0
:100650000B4810B5016841F400710160016841F474
:1006600080610160016841F480710160032000F045
:100670006FF80F2000F006F800F024F8002010BDFD
:10068000003C024070B50D4D04464FF47A71287855
:10069000B1FBF0F00A490968B1FBF0F000F0ECFAA8
:1006A00048B9102C07D200222146501E00F030F825
:1006B00000206C6070BD012070BD000010000020A3
:1006C0001C0000200A4808B5016841F4804101601F
:1006D000006800F4804000900548001F016841F068
:1006E00080510160006800F08050009008BD00005B
:1006F00044380240002809DB00F01F02012191402C
:100700004009800000F1E020C0F8001170470000AF
:10071000F0B40E4B1B680C46C3F30223C3F107056C
:10072000042D00D90425191D072901D2002300E05A
:10073000DB1E012606FA05F1491E214099409E4024
:10074000761E16403143F0BC00F024BF0CED00E0F3
:10075000064900F0070208684FF6FF03184040EA18
:100760000220034A10430860704700000CED00E0CF
:100770000000FA052DE9F0470E46050065D0DFF8C8
:100780001481D8F80000F7B200F00700B04207D299
:1007900088F80070D8F8000000F00700B04254D18B
:1007A00028683D4C810712D5400703D5206840F4E6
:1007B000E05020602878000703D5206840F46040AE
:1007C00020602068A96820F0F000084320602878A5
:1007D000C0072DD0304968680839012812D0022896
:1007E00013D0032811D00968890700292DDA216860
:1007F00021F0030101432160FFF71CFF814641F214
:10080000883A0EE009688903EFE709688901ECE797
:10081000FFF710FFA0EB0901514502D90320BDE805
:10082000F0872068696800F00C00B0EB810FEFD111
:10083000D8F80010404601F00701B14207D907700F
:10084000006800F00700B04201D00120E7E72878F7
:10085000400705D52068E96820F4E050084320608F
:100860002878000706D52068296920F4604040EA0E
:10087000C100206000F018F82168084AC1F3031194
:10088000515CC8400649086006480068FFF7FAFE58
:100890000020C4E7003C024008380240E61500088A
:1008A0001C00002014000020154810B5006810F04E
:1008B0000C02144813D01449042A0FD0082A0ED170
:1008C0000F4C241F2268236802F03F025B0207D509
:1008D0002068C0F38810A0FB010106E0084610BDA7
:1008E0002168C1F38811A1FB00010023FFF7BCFCC4
:1008F0002168C1F30141491C4900B0FBF1F010BD72
:10090000083802400024F40040787D012DE9F84FBA
:1009100004006ED02078DFF84C93C007A9F10405DD
:100920004AD009F104000168C1F38101012908D00E
:100930000068C0F3810002280AD1D9F80000400203
:1009400006D52868800337D560680028E1D033E0F9
:100950006068B0F5803F10D0B0F5A02F286810D0A7
:1009600020F480302860286820F4802028606068A7
:10097000A8B1FFF75FFE06460DE0286840F480301E
:10098000F4E740F480202860F7E700BFFFF752FE4D
:10099000801B642873D828688003F7D50CE0FFF724
:1009A00049FE064605E000BFFFF744FE801B6428B1
:1009B000F0D828688003F7D42078DFF8AC8280076D
:1009C0004FF0000A3ED5A748001D016811F00C0F3A
:1009D00008D00068C0F3810002280BD1D9F80000CC
:1009E000400207D42868800716D5E068012800D1A6
:1009F00012E033E1E068B8B10120C8F80000FFF769
:100A000019FE064605E000BFFFF714FE801B022812
:100A1000C0D828688007F7D52868216920F0F80039
:100A200040EAC10028600DE0C8F800A0FFF702FE10
:100A3000064604E0FFF7FEFD801B02281FD8286849
:100A40008007F7D42078000722D5864F8748616950
:100A5000703771B101210160FFF7ECFD064604E03B
:100A6000FFF7E8FD801B022809D838688007F7D512
:100A70000EE0C0F800A0FFF7DDFD064605E082E0CD
:100A8000FFF7D8FD801B02287DD838688007F7D48F
:100A90002078400768D5DFF8CCB100270BF13C0B7C
:100AA000DBF80000C0000BD4DBF8001041F08051EF
:100AB000CBF80010DBF80000012700F08050009018
:100AC0006B4E3068C00510D4306840F480703060E0
:100AD000FFF7B0FD009005E0FFF7ACFD0099401A6C
:100AE000022850D83068C005F6D55E4EA0686C3636
:100AF00001280FD00528306810D020F001003060A8
:100B0000306820F004003060A068B8B1FFF792FDB3
:100B100000900FE0306840F00100F4E740F004007E
:100B20003060F7E7FFF786FD0099411A41F28830FF
:100B3000814266D830688007F4D50EE0FFF77AFD71
:100B4000009007E0FFF776FD0099411A41F28830E6
:100B5000814256D830688007F4D42FB1DBF80010FA
:100B600021F08051CBF80010A069C8B33D49091DA0
:100B70000968C1F3810102294AD00228504607D0F2
:100B8000C8F8600000E03CE0FFF754FD04463BE09D
:100B90004746C8F86000FFF74DFD064605E000BF78
:100BA000FFF748FD801B02282BD828688001F7D466
:100BB000D4E907010843A16A2E4A490802EB014122
:100BC000626A41EA8211084394F82C1040EA0161FC
:100BD000C9F8001001203866FFF72CFD044606E036
:100BE0003EE000BFFFF726FD001B022809D8286859
:100BF0008001F7D534E000BFFFF71CFD001B022881
:100C000002D90320BDE8F88F28688001F4D427E0DA
:100C10000128F7D0D9F80000E26900F48001914280
:100C20001CD1226A00F03F01914217D147F6C071F2
:100C3000626A0140B1EB821F10D1A26A4FF0FF330C
:100C400000F4403103EB5202B1EB024F06D194F8AD
:100C50002C1000F07060B0EB016F01D00120D1E7E3
:100C60000020CFE70438024000004742800E474290
:100C7000007000400000FFFF10B5401EB0F1807F03
:100C800001D3012010BD4FF0E02460610F216017F7
:100C900000F080FC0020A06107202061002010BD32
:100CA0007047704770B590F83C20012A32D001247B
:100CB00080F83C40022280F83D2003685A689D6815
:100CC00022F070060A6832435A60134B02689A4257
:100CD00014D0B2F1804F11D0104B9A420ED0104B6D
:100CE0009A420BD00F4B9A4208D00F4B9A4205D034
:100CF0000E4B9A4202D00E4B9A4204D1496825F01D
:100D000080031943916080F83D40002180F83C1039
:100D1000084670BD022070BD000001400004004084
:100D200000080040000C0040000401400040014069
:100D30000018004010B5040003D094F83D0010B135
:100D400007E0012010BD002084F83C00204600F0A0
:100D50001FF8022084F83D00211D206800F080FB70
:100D6000012084F8460084F83E0084F83F0084F8AF
:100D7000400084F8410084F8420084F8430084F87D
:100D8000440084F8450084F83D00002010BD0000B8
:100D900008B500680B49884212D10B48016841F040
:100DA000040101600068002200F004000090114678
:100DB0001E20FFF7ADFCBDE808401E20FFF79ABCDF
:100DC00008BD0000000800404038024090F83D1087
:100DD000012901D001207047022180F83D100168EF
:100DE000CA6842F00102CA6000681149884214D002
:100DF000B0F1804F11D00F4988420ED00E49884281
:100E00000BD00E49884208D00D49884205D00D49C3
:100E1000884202D00C49884204D1816801F0070160
:100E2000062903D0016841F00101016000207047EC
:100E3000000001400004004000080040000C004099
:100E400000040140004001400018004070B5044615
:100E500090F83C000025012817D0012684F83C605A
:100E6000022084F83D002068826822F0770222F494
:100E70007F4282600868502838D00DDC20284FD08F
:100E800005DC90B3102811D14AE0022070BD302853
:100E900046D040280AD13BE060282FD070280DD0E2
:100EA000B0F5805F03D0B0F5005F12D0012584F863
:100EB0003D60002084F83C00284670BDCB68D1E935
:100EC0000121206800F030FB2068816841F0770143
:100ED00009E0CB68D1E90121206800F025FB2068FA
:100EE000816841F480418160E1E719E0CA6849689E
:100EF000206800F02BFB5021206806E0CA68496892
:100F0000206800F034FB6021206800F017FBCEE77A
:100F1000CA684968206800F019FB40212068F4E79E
:100F2000226801461046F0E7704770B50446006835
:100F300001694FF00005C943890715D4C168C94349
:100F4000890711D4E91E016101202077206880699A
:100F50008007204602D0FFF7E7FF04E000F098F892
:100F6000204600F096F8257720680169C9434907B3
:100F700017D4C168C943490713D46FF00401016154
:100F8000022020772068806910F4407F204602D03C
:100F9000FFF7CAFF04E000F07BF8204600F079F884
:100FA000257720680169C943090716D4C168C94378
:100FB000090712D46FF0080101610420207720682E
:100FC000C0698007204602D0FFF7AEFF04E000F0C2
:100FD0005FF8204600F05DF8257720680169C94375
:100FE000C90617D4C168C943C90613D46FF01001EC
:100FF0000161082020772068C06910F4407F2046F6
:1010000002D0FFF791FF04E000F042F8204600F024
:1010100040F8257720680169C943C90708D1C1682C
:10102000C943C90704D1891E0161204600F032F886
:1010300020680169C943090609D4C168C943090682
:1010400005D46FF0800101612046FFF729FE20687A
:101050000169C943490609D4C168C943490605D491
:101060006FF040010161204600F034F8206801690A
:10107000C94389060BD4C168C943890607D46FF0F8
:10108000200101612046BDE87040FFF70ABE70BD37
:10109000704770470D4910B5884213D100F0DCF855
:1010A0000B48418911B98289521C82818289B2F52B
:1010B0007A7F07D3002905D181810188042902D0D4
:1010C000491C018010BD0121FBE700002000002029
:1010D000000000207047FEE72DE9F04387B014219F
:1010E0006846FFF738F93C480025016841F00401E3
:1010F0000160016801F004010591016841F080017F
:101100000160016801F080010591016841F0010171
:101110000160016801F001010591016841F00801D9
:101120000160016801F008010591016841F00201C8
:1011300001600068294F00F00200059000224FF482
:10114000F0713846FFF771FADFF894804FF440767B
:10115000002231464046FFF768FADFF88890002207
:1011600070214846FFF761FA4FF40050CDE90005C1
:101170000124694602944046FFF752F9E0208DE8C9
:101180003100694638460395FFF74AF9CDE9006416
:101190000326CDE9024669464046FFF741F92002A1
:1011A000CDE90004CDE9024669463846FFF738F933
:1011B0000420CDE90005694602940B48FFF730F999
:1011C0007020CDE9000469464846CDE90245FFF7A5
:1011D00027F907B0BDE8F083303802400000024034
:1011E0000008024000040240000C024010B586B026
:1011F0000024174800940194029403940494134922
:10120000059401605321C0E9011441F28731C0E91E
:10121000031480218161FFF78DFD08B1FFF7FDF810
:101220004FF48050009069460948FFF70FFE08B15F
:10123000FFF7F3F8049404A905480594FFF732FD7D
:10124000002801D0FFF7E9F806B010BD0008004003
:1012500020000020FEE700002DE9F041294E4FF468
:1012600000513046FFF7D4F9274C0421608027480D
:10127000FFF7CEF9E080608800250028A08811D013
:10128000021F0127B115C42A02D86289012A0CD095
:10129000C82818D91E48FFF7C0F9608901280FD067
:1012A00067810BE0401CA0800EE03046FFF7B5F9E7
:1012B0002088042802D0401C208004E0278002E01F
:1012C00065812780A581A580E0880028208906D037
:1012D000001FC42811D86089012804D00DE0401CEB
:1012E0002081BDE8F0814FF400713046FFF795F999
:1012F0002088012803D0401E20802581F1E70420AA
:10130000FAE700000008024000000020000C024044
:10131000000002400D4B012809D002280DD00328FF
:1013200013D181B1012240211846FFF77EB911B1D6
:1013300001221021F8E70022FBE711B10122202150
:10134000F2E70022FBE70022EDE7704700040240CD
:1013500010B5012813D0022813D003281BD004286D
:101360001FD101210120FFF7D5FF01210220FFF746
:10137000D1FF0021BDE810400320FFF7CBBF0021C3
:10138000F0E700210120FFF7C5FF00210220FFF751
:10139000C1FF0121EEE700210120FFF7BBFF002183
:1013A000E4E710BDFEE770477047FFF749B900005A
:1013B00030B593B030216846FEF7CDFF14210CA85C
:1013C000FEF7C9FF1D480025016841F0805101600A
:1013D000006800F0805011901948016841F4804184
:1013E00001600068022400F4804011900120039005
:1013F00010200490009406940820CDE90750A820FE
:10140000CDE9090404200B906846FFF77FFA08B184
:1014100072B6FEE70CA90F2081E831004FF4A0500E
:101420000F904FF48050109005210CA8FFF7A2F9FF
:10143000002801D072B6FEE713B030BD403802403C
:10144000007000400248016841F47001016070477B
:1014500088ED00E00148FFF768BD00002000002093
:10146000F0B50268254C264D264E274F274B4FF0EE
:10147000804CA04209D0604507D0A84205D0B042B8
:1014800003D0B84201D0984204D122F0700E4A68CD
:1014900042EA0E02A0421BD0604519D0A84217D0E4
:1014A000B04215D0B84213D0984211D0184DA8427E
:1014B0000ED0184DA8420BD0174DA84208D0174D9A
:1014C000A84205D0164DA84202D0164DA84203D11D
:1014D00022F44075CA682A434D6922F080022A43EB
:1014E00002608A68C2620A688262A04201D09842A1
:1014F00001D10969016301214161F0BD0000014092
:101500000004004000080040000C004000040140BE
:1015100000400140004401400048014000180040E4
:10152000001C00400020004010B5846842EA0322FD
:1015300024F47F440A432243826010BD826822F073
:1015400070020A4342F007018160704710B5036AD8
:10155000046A24F001040462846924F0F00444EA7B
:10156000021423F00A020A438461026210BD10B51E
:10157000036A23F0100303628369046A23F470434F
:1015800043EA023224F0A00343EA011182610162BE
:1015900010BDFEE70907090E002804DB00F1E0207A
:1015A00080F80014704700F00F0000F1E02080F890
:1015B000141D7047FFF74CF8FFF7FAFEFFF78CFD9C
:1015C000FFF714FE0348FFF701FC034C2088FFF7E8
:1015D000BFFEFBE720000020000000204FF040701D
:1015E000E1EE100A70470000000000000000010258
:1015F0000304060708090000181600080000002070
:1016000020000000C4010008381600082000002057
:10161000A8060000E0010008010000000000000032
:1016200000000000000000000100000010000000A9
:08163000000000000024F4009A
:040000050800018965
:00000001FF
