:020000040800F2
:10000000F80500209D0100084F2A0008B5270008C8
:100010004D2A0008F9080008A93000080000000077
:10002000000000000000000000000000532A00084B
:100030001909000800000000512A0008A52A00083C
:10004000B7010008B7010008B7010008B7010008B0
:10005000B7010008B7010008B7010008B7010008A0
:10006000B7010008B7010008B7010008B701000890
:10007000B7010008B7010008B7010008B701000880
:10008000B7010008B7010008B7010008B701000870
:10009000B7010008B7010008B7010008B701000860
:1000A000B7010008B7010008B7010008B701000850
:1000B0004D2B0008592B0008B7010008B7010008B4
:1000C000B7010008B7010008B7010008B701000830
:1000D000B7010008812F0008B7010008B701000828
:1000E000B7010008B7010008B7010008B701000810
:1000F000B7010008B7010008B7010008B701000800
:10010000B7010008B7010008B7010008B7010008EF
:10011000992C0008B7010008B7010008B7010008D2
:10012000B7010008B7010008B7010008B7010008CF
:10013000B70100080000000000000000B70100083F
:10014000B7010008B7010008B7010008B7010008AF
:10015000B7010008B7010008B7010008B70100089F
:10016000B7010008B7010008B7010008B70100088F
:10017000B7010008B70100080000000000000000FF
:10018000B7010008B7010008DFF80CD000F00EFB43
:1001900000480047AD320008F805002006488047B7
:1001A00006480047FEE7FEE7FEE7FEE7FEE7FEE75C
:1001B000FEE7FEE7FEE7FEE73D2B000889010008A9
:1001C0002DE9F05F0546002092469B46884606468C
:1001D000814640241BE0284641464746224600F01F
:1001E00066FA53465A46C01A914110D31146184632
:1001F000224600F04DFA2D1A67EB01084F462246C1
:100200000120002100F044FA17EB00094E41201EA6
:10021000A4F10104DFDC484631462A464346BDE8E6
:10022000F09FD2B201E000F8012B491EFBD27047CB
:100230000022F6E710B513460A4604461946FFF7B2
:10024000F0FF204610BD2DE9FE4F804681EA0300F5
:10025000C00F0C46009021F0004123F00045B8EBA0
:100260000200A94105D24046214690461C460B4655
:10027000024623F00040104347D0270DC7F30A0081
:10028000C3F30A510290401A019040286BDAC3F37D
:10029000130040F4801B0098924620B10023D2EB5B
:1002A000030A63EB0B0B01985946C0F1400250461C
:1002B00000F0EEF906460D4650465946019A00F008
:1002C00006FA10EB08006141002487EA115284EA23
:1002D000E7731A4340D0009A62B3019A012A4FEAA9
:1002E000075215DC001B61EB02014FF0004202EAED
:1002F0000752CDE90042001C41F5801132462B46E1
:1003000000F006FA03B0BDE8F08F40462146F9E759
:10031000001B61EB0201001C41F5801300185B41DA
:100320002018A2F5001747EB030140EAD570B61973
:100330006D4111E06D084FEA360645EAC0754FEA97
:100340000752001B61EB0201001C41F580114908B6
:100350004FEA30000019514132462B4603B0BDE848
:10036000F04F00F0C6B90098012240000023D0EB06
:10037000020263EBE073009821464FEAE074B8EBA9
:10038000000061EB0401E9E783F000435BE781F0E3
:10039000004158E72DE9FE4F81EA030404F00044D0
:1003A00021F0004100944FF0000B23F0004350EA8D
:1003B00001045ED052EA03045BD0C3F30A54C1F3D4
:1003C0000A552C44A4F2F3340194A0FB0254C1F367
:1003D000130141F48011C3F3130343F4801301FBB1
:1003E000024400FB034E840A970A44EA815447EA18
:1003F0008357A4FB076802958D0A05FB07854FEA22
:10040000932C04FB0C542705029D4FEA065847EA3B
:100410001637B5EB08056EEB070C870E920E47EA10
:10042000811742EA8312A7FB0201B6EB0B0164EBD2
:1004300000042B0D43EA0C335E1844EB1C50DA46E3
:100440005146E7FB0201C5F313044FEA0B3343EABD
:1004500014534FEA0432019C43EA0603A4F10C044E
:100460000294009CCDE900B400F052F903B0BDE85D
:10047000F08F00200146F9E72DE9F04D81EA0304F1
:1004800004F0004B21F0004514464FF0000A23F021
:10049000004150EA050220D054EA01021DD0C5F304
:1004A0000A570246C5F31303C1F31300C1F30A56FA
:1004B00040F4801543F48013A7EB0608101BD646C2
:1004C00008F2FD3873EB050002D308F1010801E0E2
:1004D00092185B41B8F1000F03DA00200146BDE835
:1004E000F08D00204FF48011064684460EE0171B65
:1004F00073EB050705D3121B63EB050306434CEAB8
:10050000010C49084FEA300092185B4150EA01079C
:10051000EDD152EA030012D082EA040083EA050119
:10052000084305D0101BAB4106D20122002306E090
:1005300000224FF0004302E06FF0010253101AEB6B
:1005400006004CEB085110EB0A0041EB0B01BDE833
:10055000F04D00F0CEB80EB5C10F80EAE07008444F
:10056000CA07002140F233438DE80E000A460B46CD
:1005700000F0CEF803B000BD0EB540F23341029159
:100580000021CDE900110A460B4600F0C1F803B086
:1005900000BD70B5C1F30A5201F000450024C1F35B
:1005A000130140F2FF3341F480119A4201DA002036
:1005B00070BD40F233439A42A2F2334203DC52420E
:1005C00000F075F800E090402C43F1D0404270BD3F
:1005D000C1F30A5210B5C1F3130140F2FF3341F4E5
:1005E00080119A4201DA002010BD40F233439A4252
:1005F000A2F2334203DC524200F059F810BD9040A1
:1006000010BD000030B5041E71F1000404DB4FF092
:100610000044404264EB0101141E73F1000405DB49
:100620001C464FF00043524263EB04038B4208BF69
:10063000824230BD30B5041E71F1000404DB4FF07E
:100640000044404264EB0101141E73F1000405DB19
:100650001C464FF00043524263EB0403994208BF2B
:10066000904230BD30B50B460146002020220124C7
:1006700009E021FA02F59D4205D303FA02F5491B70
:1006800004FA02F52844151EA2F10102F1DC30BD86
:10069000202A04DB203A00FA02F100207047914042
:1006A000C2F1200320FA03F3194390407047202A37
:1006B00004DB203A21FA02F00021704721FA02F30C
:1006C000D040C2F120029140084319467047202AC9
:1006D00006DBCB17203A41FA02F043EAE07306E06A
:1006E00041FA02F3D040C2F120029140084319467A
:1006F000704710B5141E73F1000408DA401C41F174
:10070000000192185B411A4301D120F0010010BD95
:100710002DE9F04D92469B4611B1B1FA81F202E00B
:10072000B0FA80F220329046FFF7B2FF04460F463F
:1007300040EA0A0041EA0B0153465A46084313D0E7
:10074000114653EA010019D0C8F140025046FFF7A4
:10075000AEFF05460E46504659464246FFF798FF03
:10076000084305D0012004E020463946BDE8F08D5D
:100770000020054346EAE0762C4337430A98630598
:10078000E40AA0EB08000022FD0A44EA47540A30BC
:1007900002D500200146E9E7010510196941DDE9AC
:1007A000084500196941BDE8F04DA2E7064C074D28
:1007B00006E0E06840F0010394E807009847103431
:1007C000AC42F6D3FFF7E4FC3C3300085C3300088E
:1007D000464910B54A6822F440324A604A68436884
:1007E0001A434A6001684A6822F480724A600168CC
:1007F0004A68036942EA03224A6001684A6822F0B3
:1008000040724A6001684A6883681A434A60016816
:100810008A6822F400628A6001688A68C3681A43A1
:100820008A60816A6FF07062D14201688A6822F042
:1008300070628A6001688A680CD0836A1A438A6091
:1008400001688A6822F040528A6001688A68C36A37
:100850001A4301E022F040528A6001688A6822F05F
:1008600002028A6001688A68037E42EA43028A6063
:1008700090F82010002901684A680FD042F4006205
:100880004A6001684A6822F460424A6001684A6826
:10089000174C436A04EB43331A4301E022F400622D
:1008A0004A600168CA6A22F47002CA620168CA6AB0
:1008B000838B104C04EB03531A43CA6201688A68A5
:1008C00022F400728A6001688A6890F8303042EA47
:1008D00043228A6001688A6822F480628A60016823
:1008E0008A68406942EA8020886010BD0023014088
:1008F00000E0FFFF0000F0FFFEE7000004480021D9
:1009000041708170818114210248FFF791BC000081
:10091000000000206C000020704772B6FEE7000067
:1009200010B5094800F088F90A21074800F02EF9AF
:10093000054800F0CBF8800504D5BDE8104002481A
:1009400000F0C6B8002010BD8000002010B5FFF7F1
:1009500002FE9FED071B53EC112BFFF71BFD9FEDD4
:10096000061B53EC112BFFF715FD41EC100B10BDCE
:100970006666666666660A40000000000000303F5A
:1009800078B50024009490F83C20012A19D0012267
:1009900080F83C200A6807230568092A13D9EE6805
:1009A0000A3A02EB420293409E43EE600B788A685B
:1009B0000A3B03EB43039A400368DD682A43DA608D
:1009C00010E0022078BD2E6902EB420293409E4364
:1009D0002E610B788A6803EB43039A4003681D6914
:1009E0002A431A614A681F23072A13D205686E6BCF
:1009F000521E02EB820293409E436E630B790A887B
:100A00005B1E92B203EB83039A4003685D6B2A433B
:100A10005A6327E005680D2A12D22E6BD21F02EB13
:100A2000820293409E432E630B790A88DB1F92B2A9
:100A300003EB83039A4003681D6B2A431A6311E09A
:100A4000EE6A0D3A02EB820293409E43EE620B790E
:100A50000A880D3B92B203EB83039A400368DD6A78
:100A60002A43DA62164B0568144A9D4206D10D6886
:100A7000122D03D1556845F48005556005689D42E7
:100A800018D10B68102B01D0112B13D1536843F4EC
:100A900000035360096810290CD10A490A4A096801
:100AA000B1FBF2F101EB8101490000E0491E009128
:100AB0000029FBD180F83C40002078BD0023014094
:100AC000002001404C00002040420F00006C7047A5
:100AD0000068C06C704770B504004FF0000503D08B
:100AE000206C002610B107E0012070BD204600F008
:100AF0001DF8666484F83C60206CC00610D4206C3D
:100B000020F4885040F0020020642046FFF760FE89
:100B10006664206C20F0020040F00100206400E0D8
:100B2000012584F83C60284670BD000010B586B0F1
:100B3000044614216846FFF77BFB11492068884270
:100B40001CD110480021026842F4807202600068E3
:100B500000F4807005900B481438026842F00102DE
:100B60000260006800F00100059020200090032042
:100B7000CDE901016946044800F0DAF906B010BD7C
:100B80000020014044380240000002402DE9F041BD
:100B9000044600680D4681684FF0000749050BD5F3
:100BA0008068C00508D5206C40F02000206484F8DF
:100BB0003C700120BDE8F08100F0C0FA064613E069
:100BC000681C11D025B100F0B9FA801BA8420BD9DE
:100BD00020680068800707D4206C40F0040020647F
:100BE00084F83C700320E5E7206800688007E7D5BB
:100BF00021686FF012000860206C40F400702064DF
:100C00002068816811F0405F13D1217E89B9C16AE3
:100C100011F4700F02D0806840050AD4206C20F4D3
:100C200080702064206CC00403D4206C40F001006C
:100C300020640020BEE7000018B50021009190F864
:100C40003C20012A07D0012280F83C2002689368EA
:100C5000DB0702D011E0022018BD936843F00103C6
:100C600093602E4A2E4B1268B2FBF3F202EB420263
:100C700000E0521E0092002AFBD102689368DB0755
:100C800042D0036C40F20164A34343F480730364D5
:100C900053685B0505D5036C23F4005343F480537C
:100CA0000364036CDB0404D5436C23F00603436444
:100CB00000E0416480F83C101A496FF02203136091
:100CC00049680068CA06184906D0884224D181685C
:100CD00011F0405F13D01FE08842F8D0134A9042D1
:100CE00003D1D1F80423D206F1D0114A904213D196
:100CF000D1F8041301F01F011029E8D30CE081683A
:100D000041F08041816007E0016C41F01001016415
:100D1000416C41F001014164002018BD4C000020ED
:100D200040420F000023014000200140002101400B
:100D30000022014070B54379012B1CD00126467179
:100D40000223037105682B6802F0100440F6FE725E
:100D5000A2409343D1E900210A43A2401A432A60EA
:100D600001680A68C023A3409A430A600671002103
:100D70004171084670BD022070BD70B5040003D0FB
:100D80002079002510B105E0012070BD6571204675
:100D900000F008F802202071256101202071002058
:100DA00070BD000010B586B0044614216846FFF7F8
:100DB0003FFA1149206888421CD11048002102687E
:100DC00042F000520260006800F0005005900B48AD
:100DD0001038026842F001020260006800F0010071
:100DE0000590102000900320CDE9010169460448D8
:100DF00000F09EF806B010BD00740040403802407C
:100E00000000024018B5046800940068104421B145
:100E1000143000900360002018BD0830F9E770B569
:100E20004279012A1ED00122427102230371046813
:100E3000266801F0100302FA03F52E43266000290C
:100E4000016811D00C6804F470153C249C40A54244
:100E500003D14B6843F002034B60027100214171E2
:100E6000084670BD022070BD0B68C3F383030F2BCF
:100E7000F3D14B6843F00103EEE72DE9F04104465E
:100E8000876D00F05BF9064694F8350000250228CE
:100E900006D08020606584F834500120BDE8F081E0
:100EA0002068016821F0160101602068416921F085
:100EB00080014161206C08B9A06C20B120680168F4
:100EC00021F0080101602068016821F00101016042
:100ED0000CE000F033F9801B052807D9202060655D
:100EE000032084F8350084F83450D7E72068006880
:100EF000C007EED194F85C103F208840B860012014
:100F000084F8350084F834500020C7E790F8351095
:100F1000022903D08021416501207047052180F816
:100F200035100068016821F0010101600020704760
:100F30002DE9F84FDFF8BCA1002201250AF1040BCE
:100F400003264FF00F090BF1040E00BF0B6805FAE2
:100F500002F42340A34270D10F7907F00307012F59
:100F600001D0022F16D187684FEA420806FA08FC22
:100F700027EA0C07D1F80CC00CFA08FC4CEA070C65
:100F8000C0F808C04768A7430C79C4F30014944024
:100F90003C4344600C79E443A4070AD0C4684FEA98
:100FA000420C06FA0CF7BC438F6807FA0CF727438C
:100FB000C7600C7904F00304022C12D1D40800EBB2
:100FC000840CDCF820405707FF0E09FA07F824EAE2
:100FD0000804D1F8108008FA07F848EA0408CCF8A9
:100FE000208004684FEA420C06FA0CF7BC430F79E4
:100FF00007F0030707FA0CF7274307604C6814F45F
:10100000403F70D03C4C276847F4804727602468F5
:1010100022F0030704F480440094384C07EB040CDE
:10102000DCF8084897074FEA177809FA08F7BC4335
:10103000334FB84202D1002724E054E0314FB84288
:1010400001D101271EE0304FB84201D1022719E03B
:101050002E4FB84201D1032714E02D4FB84201D1E1
:1010600004270FE02B4FB84201D105270AE02A4F91
:10107000B84201D1062705E0284FB84201D1072721
:1010800000E0082707FA08F72743CCF80878DAF8D1
:1010900000405746D1F804C09C435FEACC3C00D5E1
:1010A0001C433C60DBF800405F46D1F804C09C4321
:1010B0005FEA8C3C00D51C433C60DEF8004077467C
:1010C000D1F804C09C435FEACC2C00D51C433C60A3
:1010D000084F0C373C68D1F804C09C435FEA8C2C65
:1010E00000D51C433C60521C102AFFF42FAFBDE812
:1010F000F88F0000003C01404438024000300140BD
:10110000000002400004024000080240000C0240BF
:10111000001002400014024000180240001C02406F
:10112000426921EA02030A4043EA024181617047B1
:101130000AB1816170470904FBE70000014880683B
:101140007047000040000020024881680278114486
:1011500081607047400000200B4810B5016841F4E1
:1011600000710160016841F480610160016841F42F
:1011700080710160032000F06FF80F2000F006F886
:1011800000F024F8002010BD003C024070B50D4D69
:1011900004464FF47A712878B1FBF0F00A490968E7
:1011A000B1FBF0F000F00CFB48B9102C07D2002284
:1011B0002146501E00F030F800206C6070BD012008
:1011C00070BD0000400000204C0000200A4808B517
:1011D000016841F480410160006800F480400090A3
:1011E0000548001F016841F080510160006800F06F
:1011F0008050009008BD000044380240002809DB00
:1012000000F01F02012191404009800000F1E02020
:10121000C0F8001170470000F0B40E4B1B680C467C
:10122000C3F30223C3F10705042D00D90425191DBA
:10123000072901D2002300E0DB1E012606FA05F192
:10124000491E214099409E40761E16403143F0BC15
:1012500001F054BF0CED00E0064900F007020868F9
:101260004FF6FF03184040EA0220034A104308608B
:10127000704700000CED00E00000FA052DE9F04792
:101280000E46050065D0DFF81481D8F80000F7B2EB
:1012900000F00700B04207D288F80070D8F80000CC
:1012A00000F00700B04254D128683D4C810712D5A8
:1012B000400703D5206840F4E050206028780007FC
:1012C00003D5206840F4604020602068A96820F0C1
:1012D000F000084320602878C0072DD030496868A6
:1012E0000839012812D0022813D0032811D0096828
:1012F000890700292DDA216821F0030101432160CB
:10130000FFF71CFF814641F2883A0EE00968890325
:10131000EFE709688901ECE7FFF710FFA0EB09018F
:10132000514502D90320BDE8F0872068696800F0C4
:101330000C00B0EB810FEFD1D8F80010404601F05F
:101340000701B14207D90770006800F00700B042FA
:1013500001D00120E7E72878400705D52068E96833
:1013600020F4E050084320602878000706D5206864
:10137000296920F4604040EAC100206000F038F89C
:101380002168084AC1F30311515CC840064908604E
:1013900006480068FFF7FAFE0020C4E7003C024060
:1013A00008380240243300084C000020440000208C
:1013B0000448054900680968044AC1F38221515C68
:1013C000C84070474C000020083802403433000801
:1013D0000448054900680968044AC1F34231515C78
:1013E000C84070474C0000200838024034330008E1
:1013F000154810B5006810F00C02144813D01449B9
:10140000042A0FD0082A0ED10F4C241F226823680B
:1014100002F03F025B0207D52068C0F38810A0FBF2
:10142000010106E0084610BD2168C1F38811A1FB47
:1014300000010023FEF7C4FE2168C1F30141491CED
:101440004900B0FBF1F010BD083802400024F40060
:1014500040787D012DE9F84F04006ED02078DFF848
:101460004C93C007A9F104054AD009F104000168B2
:10147000C1F38101012908D00068C0F3810002286E
:101480000AD1D9F80000400206D52868800337D574
:1014900060680028E1D033E06068B0F5803F10D08C
:1014A000B0F5A02F286810D020F48030286028687C
:1014B00020F4802028606068A8B1FFF73FFE064650
:1014C0000DE0286840F48030F4E740F48020286084
:1014D000F7E700BFFFF732FE801B642873D8286847
:1014E0008003F7D50CE0FFF729FE064605E000BFB4
:1014F000FFF724FE801B6428F0D828688003F7D407
:101500002078DFF8AC8280074FF0000A3ED5A7486C
:10151000001D016811F00C0F08D00068C0F38100B5
:1015200002280BD1D9F80000400207D428688007B0
:1015300016D5E068012800D112E033E1E068B8B1C7
:101540000120C8F80000FFF7F9FD064605E000BFDE
:10155000FFF7F4FD801B0228C0D828688007F7D564
:101560002868216920F0F80040EAC10028600DE0F9
:10157000C8F800A0FFF7E2FD064604E0FFF7DEFD35
:10158000801B02281FD828688007F7D4207800071E
:1015900022D5864F87486169703771B1012101609A
:1015A000FFF7CCFD064604E0FFF7C8FD801B0228CC
:1015B00009D838688007F7D50EE0C0F800A0FFF71B
:1015C000BDFD064605E082E0FFF7B8FD801B02285E
:1015D0007DD838688007F7D42078400768D5DFF8D1
:1015E000CCB100270BF13C0BDBF80000C0000BD4A2
:1015F000DBF8001041F08051CBF80010DBF8000060
:10160000012700F0805000906B4E3068C00510D468
:10161000306840F480703060FFF790FD009005E086
:10162000FFF78CFD0099401A022850D83068C00599
:10163000F6D55E4EA0686C3601280FD005283068BC
:1016400010D020F001003060306820F004003060DD
:10165000A068B8B1FFF772FD00900FE0306840F06D
:101660000100F4E740F004003060F7E7FFF766FDA3
:101670000099411A41F28830814266D8306880076B
:10168000F4D50EE0FFF75AFD009007E0FFF756FD96
:101690000099411A41F28830814256D8306880075B
:1016A000F4D42FB1DBF8001021F08051CBF80010FA
:1016B000A069C8B33D49091D0968C1F38101022928
:1016C0004AD00228504607D0C8F8600000E03CE04D
:1016D000FFF734FD04463BE04746C8F86000FFF7DB
:1016E0002DFD064605E000BFFFF728FD801B022800
:1016F0002BD828688001F7D4D4E907010843A16AF0
:101700002E4A490802EB0141626A41EA821108430C
:1017100094F82C1040EA0161C9F8001001203866E5
:10172000FFF70CFD044606E03EE000BFFFF706FDB4
:10173000001B022809D828688001F7D534E000BFD3
:10174000FFF7FCFC001B022802D90320BDE8F88F3C
:1017500028688001F4D427E00128F7D0D9F80000E8
:10176000E26900F4800191421CD1226A00F03F013D
:10177000914217D147F6C071626A0140B1EB821FF6
:1017800010D1A26A4FF0FF3300F4403103EB520254
:10179000B1EB024F06D194F82C1000F07060B0EB62
:1017A000016F01D00120D1E70020CFE704380240CB
:1017B00000004742800E4742007000400000FFFFDB
:1017C00010B5401EB0F1807F01D3012010BD4FF055
:1017D000E02460610F21601701F090FC0020A061FF
:1017E00007202061002010BD7047704770B590F849
:1017F0003C20012A32D0012480F83C40022280F8AB
:101800003D2003685A689D6822F070060A683243DA
:101810005A60134B02689A4214D0B2F1804F11D033
:10182000104B9A420ED0104B9A420BD00F4B9A425B
:1018300008D00F4B9A4205D00E4B9A4202D00E4B65
:101840009A4204D1496825F080031943916080F8D9
:101850003D40002180F83C10084670BD022070BD5C
:10186000000001400004004000080040000C00405F
:1018700000040140004001400018004010B5040081
:1018800003D094F83D0010B107E0012010BD002006
:1018900084F83C00204600F01FF8022084F83D0048
:1018A000211D206801F05EF9012084F8460084F8CB
:1018B0003E0084F83F0084F8400084F8410084F83A
:1018C000420084F8430084F8440084F8450084F81A
:1018D0003D00002010BD000008B501681448B1F1BA
:1018E000804F14D0134A914220D1016841F0020187
:1018F00001600068002200F00200009011461D20E7
:10190000FFF78AFC1D20BDE80840FFF777BC01689F
:1019100041F0010101600068002200F00100009028
:1019200011461C20FFF778FC1C20ECE708BD0000E6
:10193000403802400004004090F83D10012901D0D9
:1019400001207047022180F83D100168CA6842F00A
:101950000102CA6000681149884214D0B0F1804F7A
:1019600011D00F4988420ED00E4988420BD00E4943
:10197000884208D00D49884205D00D49884202D0DE
:101980000C49884204D1816801F00701062903D07F
:10199000016841F001010160002070470000014032
:1019A0000004004000080040000C0040000401401A
:1019B000004001400018004070B5044690F83C001B
:1019C0000025012817D0012684F83C60022084F805
:1019D0003D002068826822F0770222F47F42826014
:1019E0000868502838D00DDC20284FD005DC90B393
:1019F000102811D14AE0022070BD302846D040287E
:101A00000AD13BE060282FD070280DD0B0F5805F60
:101A100003D0B0F5005F12D0012584F83D600020AE
:101A200084F83C00284670BDCB68D1E901212068CC
:101A300001F0FCF82068816841F0770109E0CB688B
:101A4000D1E90121206801F0F1F82068816841F4B2
:101A500080418160E1E719E0CA684968206801F0C7
:101A6000F7F85021206806E0CA684968206801F04C
:101A700000F96021206801F0E3F8CEE7CA68496800
:101A8000206801F0E5F840212068F4E7226801466B
:101A90001046F0E7704770B50446006801694FF0E2
:101AA0000005C943890715D4C168C943890711D402
:101AB000E91E0161012020772068806980072046A7
:101AC00002D0FFF7E7FF04E000F098F8204600F0AE
:101AD00096F8257720680169C943490717D4C1687A
:101AE000C943490713D46FF0040101610220207734
:101AF0002068806910F4407F204602D0FFF7CAFFBB
:101B000004E000F07BF8204600F079F825772068A3
:101B10000169C943090716D4C168C943090712D42A
:101B20006FF008010161042020772068C0698007F8
:101B3000204602D0FFF7AEFF04E000F05FF8204639
:101B400000F05DF8257720680169C943C90617D4FC
:101B5000C168C943C90613D46FF0100101610820A0
:101B600020772068C06910F4407F204602D0FFF73C
:101B700091FF04E000F042F8204600F040F825779D
:101B800020680169C943C90708D1C168C943C907A9
:101B900004D1891E0161204600F032F820680169F5
:101BA000C943090609D4C168C943090605D46FF0C1
:101BB000800101612046FFF717FE20680169C943D3
:101BC000490609D4C168C943490605D46FF04001EC
:101BD0000161204600F0E2F920680169C9438906E5
:101BE0000BD4C168C943890607D46FF02001016195
:101BF0002046BDE87040FFF7F8BD70BD70477047E4
:101C00002DE9F0412DED088B0646B2489FEDB29BC1
:101C10000027B34C864272D1E069401CE061FEF7B8
:101C20007FFE6061A1690844A061E169B1F5FA7FB6
:101C3000F1D1E761FEF78FFC884648EC100B0546B2
:101C40009FEDA88B51EC100B53EC182BFEF714FCF6
:101C5000C4E90E01E0889FEDA5AB9FEDA6BB30B3B4
:101C600048EC105B9FEDA51B51EC100B53EC112BB6
:101C7000FEF78AFB53EC192BFEF78CFB9FEDA11BA3
:101C800053EC112BFEF786FBFEF783FCFEF75EFE9E
:101C90009FED9E1B51EC100B53EC112BFEF77AFBC2
:101CA00053EC182BFEF7E8FBC4E90C0101E084EDCE
:101CB0000CAB94ED0C0B53EC182B51EC100BFEF706
:101CC000A1FC05D284ED0CABBDEC088BBDE8F08126
:101CD0009FED900B53EC102B94ED0C0B51EC100B73
:101CE000FEF790FC18D994ED0C0B53EC1B2B51EC28
:101CF000100BFEF787FC03D89FED880B02E07EE017
:101D00009FED880B53EC102B94ED0C0B51EC100B4A
:101D1000FEF740FBC4E90C0194ED0C0B53EC1A2BBD
:101D200051EC100BFEF76EFC2DD094ED0C0B53EC28
:101D30001B2B51EC100BFEF765FC24D820696421A5
:101D400048432061FEF707FC884648EC180B94EDE9
:101D50000C0B054653EC102B51EC180BFEF717FB40
:101D60009FED721B53EC112BFEF714FB53EC182B59
:101D7000FEF782FB41EC100B48EC115B53EC102B8F
:101D800051EC110B36E09FED6B0B53EC102B94EDE7
:101D90000C0B51EC100BFEF74DFC2FD82069FEF711
:101DA000DAFB9FED661B53EC112BFEF7F3FAFEF7FF
:101DB000F0FB2061FEF7CFFB884648EC180B94ED52
:101DC0000C0B054653EC102B51EC180BFEF7DFFA09
:101DD0009FED5C1B53EC112BFEF7DCFA53EC182B38
:101DE000FEF74AFB41EC110B48EC105B53EC112B56
:101DF00051EC100BFEF727FAC4E90C01A761534818
:101E000086427FF461AFA088401CA08001F04EF9AB
:101E1000A0880A25B0FBF5F105FB110010B91020D0
:101E200001F0B4F8A088B0FBF5F105FB110005281E
:101E300002D1302001F0AAF8A0886428E1D194ED05
:101E40000C0B51EC100BFEF7A4FB0146002001F037
:101E5000C3F8E088C8B33EA001F040F994ED0C0B44
:101E600051EC100BFEF795FB642190FBF1F13EA0C5
:101E700001F034F93DA001F031F994ED0C0B53EC75
:101E8000192B51EC100BFEF7F7FAFEF782FB90FBD3
:101E9000F5F105FB110134A001F020F994ED0C0BD4
:101EA00051EC100BFEF775FB90FBF5F105FB1101F2
:101EB0002FA001F013F9A7804FF48071BDEC088BBF
:101EC000BDE8F0412D48FFF72BB92DA001F006F930
:101ED000F1E7000024010020000000000000244081
:101EE000000000200000000000407F4000000000D3
:101EF00000000000000000000088C3400000000057
:101F0000000C974000000000000059400000000055
:101F100000408F40000000000070A7408D976E12B7
:101F200083C0EE3FA245B6F3FDD4EC3F00000000B5
:101F30000000794000000000006AE8409A999999F1
:101F4000990AAA4000000000006AF840DC00002066
:101F5000B5B1C7B0B5E7D4B4CAE4B3F6B5E7C1F7D5
:101F6000D6B5CEAAA3BA0000256400002E0000005A
:101F70002564206D410D0A200D0A00000008024072
:101F8000B5B1C7B0B5E7D4B4D7B4CCACCEAA4F4640
:101F900046D7B4CCAC0D0A200D0A0000704770473C
:101FA000704710F83D1F407808437047F8B5016846
:101FB00004460868CA684B6910F00F0F4FF000051F
:101FC0005AD003F0010602F49077374365D0C10779
:101FD00005D0D10503D5216C41F0010121644107F1
:101FE00005D5D90703D0216C41F002012164810796
:101FF00005D5D90703D0216C41F004012164010704
:1020000007D502F02001314303D0216C41F00801D3
:102010002164216C00293BD0800604D5900602D5AE
:10202000204600F06EFE20684069216CC0F38010ED
:1020300001F00801014320462BD000F03BFE206850
:102040004069400621D52068143050E8001F21F077
:10205000400140E80012002AF5D1A06BA8B16C49FC
:102060000165A06BFEF752FF002811D0A06B016D37
:1020700001B0BDE8F040084783060ED593060CD5A5
:102080002046BDE8F84000F03CBE2046FFF788FF40
:10209000F8BDFFF785FF2564F8BD266B2023012ED0
:1020A00079D1C60677D5D60675D5086848680090F8
:1020B0004869400640D5A16B086840680004000CE0
:1020C000EAD0A28D8242E7D9E085C869B0F5807F69
:1020D0002DD020680C3050E8001F21F4807140E8BA
:1020E0000012002AF5D12068143050E8001F21F0BA
:1020F000010140E80012002AF5D12068143050E8B0
:10210000001F21F0400140E80012002AF5D184F8B8
:102110003E30256320680C3050E8001F21F010018C
:1021200040E80012002AF5D1A06BFEF7A6FEA08DB4
:10213000E18D401A81B229E0A08DE18D401A81B273
:10214000E08D0028A8D00029A6D020680C3050E8E7
:10215000002F22F4907240E80026002EF5D120686E
:10216000143050E8002F22F0010240E80026002E33
:10217000F5D184F83E30256320680C3050E8002FFC
:1021800022F0100240E80023002BF5D12046FFF793
:1021900006FFF8BDFFE705062BD5150629D594F8EF
:1021A0003D002128F5D1A068B0F5805F01D12069FC
:1021B000B0B1206A411C2162216800784860E08C3F
:1021C000401E0004000CE084E3D12068C16821F0C7
:1021D0008001C1602068C16841F04001C160D8E75A
:1021E000206A0088C0F308004860206A801C2062D2
:1021F000E5E74006CDD55006CBD5CA68204622F08B
:102200004002CA6084F83D3000F0D3FAC1E7000014
:10221000A52C000870B5040004D094F83D000025FA
:1022200010B106E0012070BD84F83C50204600F05B
:1022300023F8242084F83D002068C16821F400516F
:10224000C160204600F0BEFD2068016921F4904184
:1022500001612068416921F02A0141612068C1685B
:1022600041F40051C1602564202084F83D0084F8C9
:102270003E00002070BD000070B586B004461421F9
:102280006846FDF7D5FF2468294E0023294903221B
:1022900002252948B44221D1264C1034266846F440
:1022A00000262660246804F4002405940C6844F099
:1022B00001040C600968029301F001010591CDE968
:1022C00000250821CDE903216946FEF731FE0022F1
:1022D00011463420FEF7A0FF342025E0174EB4420B
:1022E00024D1144C1434266846F010062660246865
:1022F00004F0100405940C6844F001040C600968B3
:10230000029301F0010105914FF4C061CDE9001580
:102310000721CDE903216946FEF70AFE0022114696
:102320002520FEF779FF2520FEF768FF06B070BD77
:10233000004C0040303802400000024000100140D4
:1023400090F83E30202B0ED159B152B190F83C306C
:10235000012B08D0012380F83C300023036300F0F8
:10236000B7BD0120704702207047000070B5B94921
:102370002DED0A8B006888427ED1B74CB74D2046C0
:1023800061780078C1B101291BD002291ED0042335
:10239000032920D0042922D0052924D02246062949
:1023A000927828D02346921C5B7868545B1CDBB281
:1023B00091422BD2637042E1A5287DD12870012083
:1023C0000FE05A28F9D1687002200AE0A8700321B2
:1023D0006170A07033E18328EFD1E870EAE72871DB
:1023E000052060702BE1687106216170297900EB8E
:1023F0000120A08123E103EB40019142DDD10721BF
:10240000A8716170E070022856D818E16370A08945
:10241000302817D1287AE97900EB01200104090C52
:102420008F48E18006D000220121FEF781FE0020C6
:10243000608107E001221146FEF77AFE9FED890BCD
:1024400000F008FBA0891028B7D1E0889FED87AB8A
:102450009FED889B9FED89BB9FED8ACB01282BD1F7
:10246000287AE97900EB012080B220812061FEF713
:1024700083F80E46054600E0E8E046EC100B9FEDC1
:10248000838B51EC100B53EC182BFDF7F5FF46EC4A
:10249000105BC4E9080153EC182B51EC100BFDF74D
:1024A000EBFF53EC1A2BFDF76FFF9FED7A1B53ECFC
:1024B000112BFDF7C8FE00E0BFE041EC180B9FEDCB
:1024C000770B53EC102B94ED0C0B51EC100BFEF72B
:1024D000B1F80FD29FED730B51EC180B53EC102B8E
:1024E000FDF758FF9FED711B53EC112BFDF7C4FF57
:1024F00041EC180B9FED6F0B53EC102B94ED0C0B74
:1025000051EC100BFEF796F807D253EC192B51EC57
:10251000180BFDF798FE41EC180B9FED680B53EC80
:10252000102B94ED0C0B51EC100BFEF783F812D22C
:102530009FED640B53EC102B94ED0C0B51EC100B36
:10254000FEF760F807D853EC192B51EC180BFDF788
:102550001BFF41EC180B9FED5D0B53EC102B94ED22
:102560000C0B51EC100BFEF765F807D294ED0C0B39
:1025700053EC1B2B51EC100BFEF744F894ED0C0BB5
:1025800053EC1B2B51EC100BFEF754F810D294EDCA
:102590000C0B53EC1C2B51EC100BFEF733F807D24D
:1025A00053EC192B51EC180BFDF74DFE41EC180BB9
:1025B00094ED0C0B53EC1C2B51EC100BFEF73AF87E
:1025C00014D29FED440B53EC102B94ED0C0B51ECFB
:1025D000100BFEF717F809D251EC180B9FED3F0BCB
:1025E00053EC102BFDF72FFE41EC180B9FED3D0B2C
:1025F00053EC102B94ED0C0B51EC100BFEF71AF86A
:1026000007D253EC1A2B51EC180BFDF71CFE41ECD2
:10261000180B9FED360B53EC182B51EC100BFDF7FC
:10262000B3FE9FED341B53EC112BFDF725FF41EC5E
:10263000100B84ED0A0B00F00DFAFEF75FF9012292
:1026400005492E48FFF77CFE0028F8D1BDEC0A8B27
:1026500070BD0000004C0040000000206C00002015
:102660000008024000000000000000009A999999BB
:102670009999B93FB81E85EB51B89E3F0000000004
:102680000040AF40000000000058BB4000000000C8
:10269000000024407B14AE47E17A943F0000000024
:1026A000006AE8403333333333B33F400000000067
:1026B00000003E40000000008031074100000000A3
:1026C00000BDEF400000000000C3FE40000000001D
:1026D00000408F40000000000040BF407B14AE4728
:1026E000E17AA43F0000000080840E41B81E85EB13
:1026F0005138214000000000000008406C0100201B
:102700002DE9F843044690F83D001F4616460D4655
:1027100020284CD1C5B1BEB194F83C00012846D068
:10272000012084F83C004FF00008C4F840802120CC
:1027300084F83D00FEF702FDA6848146E684A06889
:10274000B0F5805F03D004E00120BDE8F883206984
:1027500028B12E465FF0000584F83C800EE000268C
:10276000FAE78021204600F0CEFBA0B9AEB116F802
:10277000010B21684860E08C401EE084E08C4B46F1
:102780004FF0000200970028EBD14FF040012046A7
:1027900000F0B9FB30B10320D7E735F8020BC0F3E6
:1027A0000800E6E7202084F83D000020CDE7022065
:1027B000CBE77047FEE700007FB500241548009482
:1027C000019402941249039401604FF48031C0E9EE
:1027D00001140461047680F820400F49C0E90A140E
:1027E0000125C561C46080F830404561FEF773F98A
:1027F00008B1FEF792F80520CDE90005694602947C
:102800000448FEF7BDF8002801D0FEF786F87FBD2A
:1028100000200140800000200100000F1CB50024B2
:102820000C4900940A48019408600846FEF7A5FA8E
:1028300008B1FEF772F80094002269460548019439
:10284000FEF778FA002801D0FEF767F81CBD0000FB
:1028500000740040C80000202DE9F04186B014212A
:102860006846FDF7E5FC2648016841F080010160FB
:10287000016801F080010591016841F004010160E7
:10288000016801F004010591016841F00101016056
:1028900000681C4F00F001000122059011463846E7
:1028A000FEF746FC4FF44075002229463846FEF7F5
:1028B0003FFCDFF85480BE15002231464046FEF74B
:1028C00037FC01240320CDE90240009469460194BD
:1028D0003846FEF72DFBCDE90054022569463846FF
:1028E000CDE90245FEF724FBCDE900646946404688
:1028F000CDE90245FEF71CFB06B0BDE8F081000003
:1029000030380240000802400000024010B586B096
:1029100000241748009401940294039404944FF007
:102920008041059401606321C0E9011442F2CF01A6
:10293000C0E9031480218161FEF7A0FF08B1FDF713
:10294000ECFF4FF48050009069460948FFF734F8D7
:1029500008B1FDF7E2FF049404A905480594FEF7C9
:1029600045FF002801D0FDF7D8FF06B010BD0000DC
:10297000DC00002010B586B00024174800940194B4
:102980000294039404941349059401605321C0E90F
:10299000011440F2F311C0E903148461FEF76EFFE5
:1029A00008B1FDF7BAFF4FF48050009069460A481D
:1029B000FFF702F808B1FDF7B0FF049404A9064838
:1029C0000594FEF713FF002801D0FDF7A6FF06B01F
:1029D00010BD000000040040240100200C4810B588
:1029E0000A4901604FF4E1314160002181600C220D
:1029F000C160C0E904128161C161FFF70BFC0028CE
:102A000003D0BDE81040FDF788BF10BD004C00406A
:102A10006C0100200C4810B50A4901604FF4E13107
:102A20004160002181600C22C160C0E90412816113
:102A3000C161FFF7EFFB002803D0BDE81040FDF7B0
:102A40006CBF10BD00100140B0010020FEE7FEE7A2
:102A5000704770479FED0E1B10B553EC112B51ECD6
:102A6000100BFDF797FC9FED0C1B53EC112BFDF7A2
:102A700003FDFDF7ADFD84B200210948FEF7CFF953
:102A800023460022BDE8104011460548FEF7BAB9BA
:102A9000000000000000B0406666666666660A4098
:102AA000C8000020FEF750BB30B593B03021684617
:102AB000FDF7BEFB14210CA8FDF7BAFB1D4800254D
:102AC000016841F080510160006800F08050119071
:102AD0001948016841F4804101600068022400F453
:102AE00080401190012003901020049000940694DF
:102AF0000820CDE90750A820CDE9090404200B9057
:102B00006846FEF7A7FC08B172B6FEE70CA90F20D5
:102B100081E831004FF4A0500F904FF48050109096
:102B200005210CA8FEF7AAFB002801D072B6FEE72B
:102B300013B030BD403802400070004002480168C8
:102B400041F470010160704788ED00E00148FEF734
:102B5000A2BF0000DC0000200148FEF79CBF00007F
:102B600024010020F0B50268254C264D264E274F43
:102B7000274B4FF0804CA04209D0604507D0A842B7
:102B800005D0B04203D0B84201D0984204D122F01F
:102B9000700E4A6842EA0E02A0421BD0604519D06E
:102BA000A84217D0B04215D0B84213D0984211D0E5
:102BB000184DA8420ED0184DA8420BD0174DA84270
:102BC00008D0174DA84205D0164DA84202D0164D88
:102BD000A84203D122F44075CA682A434D6922F005
:102BE00080022A4302608A68C2620A688262A04246
:102BF00001D0984201D10969016301214161F0BD11
:102C0000000001400004004000080040000C0040AB
:102C100000040140004001400044014000480140E0
:102C200000180040001C00400020004010B58468DF
:102C300042EA032224F47F440A432243826010BD07
:102C4000826822F070020A4342F0070181607047F7
:102C500010B5036A046A24F001040462846924F054
:102C6000F00444EA021423F00A020A438461026277
:102C700010BD10B5036A23F0100303628369046A70
:102C800023F4704343EA023224F0A00343EA011123
:102C90008261016210BD00000148FFF787B90000A2
:102CA0006C01002010B5806B0021C185C184FFF745
:102CB00077F910BD01680C3151E8002F22F49072B1
:102CC00041E80023002BF5D10168143151E8002FB1
:102CD00022F0010241E80023002BF5D1016B01290C
:102CE00009D101680C3151E8002F22F0100241E8AF
:102CF0000023002BF5D1202180F83E100021016334
:102D0000704708B590F83E10222901D0022008BD76
:102D100082684FF480539A4201D1016921B1816ADE
:102D20009A421BD04AB10AE00268816A5268C2F333
:102D300008020A80816A891C08E0026972B102688F
:102D4000526802F07F020A70816A491C8162C18D5B
:102D5000491E0904090CC18503D019E002685268B4
:102D6000F1E70168CA6822F02002CA600168CA68F7
:102D700022F48072CA6001684A6922F001024A6145
:102D8000202180F83E10016B012903D0FFF7EEFAF5
:102D9000002008BD0021016301680C3151E8002FBB
:102DA00022F0100241E80023002BF5D101680A68E7
:102DB000D20602D50A6849680091818DFFF7EFF8C5
:102DC000E6E7000070B5044600680169E26821F496
:102DD0004051114301612169A068E26908436169BA
:102DE000114308432168CA6849F20C639A430243BD
:102DF000CA6020684169A26921F4407111434161B0
:102E000031492068884202D03049884202D1FEF719
:102E1000DFFA01E0FEF7CCFAE2690023192164250C
:102E20003226B2F5004F626828D0A0FB0101930F53
:102E30009200FDF7C5F90146B0FBF5F06FF01802FE
:102E4000504301EB800006EB0010B0FBF5F000F002
:102E5000F002B1FBF5F002EB0012B1FBF5F06FF000
:102E60001803584301EB800006EB0010B0FBF5F0AF
:102E700000F00F0021681044886070BDA0FB0101C4
:102E800092185B41FDF79CF90146B0FBF5F0020199
:102E9000B1FBF5F06FF01803584301EB800006EB2F
:102EA000C000B0FBF5F000F0F80002EB4002B1FB0F
:102EB000F5F0584301EB800006EBC000B0FBF5F0E5
:102EC00000F00700D6E700000010014000140140A8
:102ED00081628285C28500210164222280F83E2021
:102EE00080F83C100168CA6842F48072CA600168C8
:102EF0004A6942F001024A610068C16841F020015C
:102F0000C160002070472DE9F041984617460E46F3
:102F10000446069D27E0681C25D02DB1FEF70EF96A
:102F2000A0EB0800A8421ED920680C3050E8001F12
:102F300021F4D07140E80012002AF5D12068143045
:102F400050E8001F21F0010140E80012002AF5D1ED
:102F5000202084F83D0084F83E00002084F83C00E6
:102F60000320BDE8F0812068006836EA000004D044
:102F70000020B842CFD00020F3E70120F9E700009D
:102F80000148FFF713B80000B001002010B586B06B
:102F9000044614216846FDF74BF9A5208DF8000082
:102FA0005A208DF8010004208DF8020083208DF84E
:102FB0000300200A8DF804008DF8054001208DF8EB
:102FC00006006423072269460248FFF799FB06B012
:102FD00010BD00006C01002030B585B00C460546E0
:102FE00014216846FDF724F9A5208DF800005A2029
:102FF0008DF8010007208DF8020082208DF8030073
:10300000280A8DF804008DF80550200E8DF8060072
:10301000200C8DF80700200A8DF808008DF8094073
:1030200064230A2269460548FFF76AFB0348FEF756
:10303000B8FF2128FAD005B030BD00006C01002097
:1030400070B586B00E460546144614216846FDF755
:10305000EFF8A5208DF800005A208DF80100601DC2
:103060008DF8020082208DF80300280A8DF80400F4
:103070008DF805500020694604E0325C0B18401CB6
:103080009A71C0B2A042F8D32144FF208871C87160
:103090000834A2B2642369460248FFF731FB06B048
:1030A00070BD00006C010020FEE700000948418966
:1030B00019B10422084940200AE0C08820B106491D
:1030C00003220839402003E003490422103940203C
:1030D000FFF7B6BF00000020640000200FB4054BCE
:1030E00010B503A9044A029800F028F810BC5DF856
:1030F00014FB000091320008500000200907090E5F
:10310000002804DB00F1E02080F80014704700F094
:103110000F0000F1E02080F8141D704702E008C89D
:10312000121F08C1002AFAD170477047002001E041
:1031300001C1121F002AFBD1704700002DE9FF4F8B
:1031400089B09B460446002506E025280BD05A4648
:103150000B999047641C6D1C20780028F5D10DB0A8
:103160002846BDE8F08F0027B8460122474900E015
:10317000074314F8013F203B02FA03F00842F7D15D
:1031800020782E2819D114F8010F47F004072A28B7
:103190000ED06FF02F022078A0F1300109290CD851
:1031A00008EB880102EB410100EB0108641CF2E727
:1031B0000A98641C50F8048B0A9020780028CED01E
:1031C000642808D0692806D075281ED05A460B9965
:1031D00090476D1C58E00A994FF00A0901C90A91FD
:1031E000002802DA40422D2102E0390504D52B21C6
:1031F0008DF82010012103E0F90704D02021F7E722
:103200008A4608AE0DE00021FAE70A994FF00A0954
:1032100001C90A91F7E74946FDF724FA303106F86B
:10322000011D0028F7D1ADEB060000F12009780759
:1032300001D44FF00108C84502DDA8EB090000E009
:1032400000208046002706E008A85A46C05D0B997A
:1032500090476D1C7F1C5745F6DB04E030205A4632
:103260000B9990476D1CB8F10001A8F10108F5DC3D
:1032700005E016F8010B5A460B9990476D1CB9F101
:103280000001A9F10109F4DC641C65E709280100CB
:1032900038B504468DF80000022301226946024831
:1032A000FFF72EFA204638BDB0010020FDF754FF8D
:1032B000FFF7FAFBFFF7D0FAFFF77EFAFFF7AEFA57
:1032C000FFF724FBFFF78AFBFFF754FBFFF7A2FB96
:1032D0000F48FEF731FB0F48FEF72EFB01220E4987
:1032E0000E48FFF72DF80E4820214F220170427042
:1032F00046238370C370017242724E21817257223D
:1033000002744122427452228274C174FEE70000AA
:10331000DC00002024010020000000206C010020BF
:10332000540000200000000000000000010203041F
:103330000607080900000000010203045C330008CE
:1033400000000020540000001C310008B0330008C9
:1033500054000020A40500002C31000800000000EB
:10336000000000000000000000000000000000005D
:10337000000000000000000000000000000000004D
:10338000000000000000000000000000000000003D
:10339000000000000000000000000000010000002C
:1033A00010000000000000000024F40000000000F5
:040000050800018965
:00000001FF
