:020000040800F2
:1000000090080020290200083F260008BD220008B1
:100010003D26000837040008312E000800000000CB
:10002000000000000000000000000000CD270008D4
:10003000390400080000000041260008CF2700080E
:10004000430200084302000843020008430200087C
:10005000430200084302000843020008430200086C
:10006000430200084302000843020008430200085C
:10007000430200084302000843020008430200084C
:10008000430200084302000843020008430200083C
:10009000430200084302000843020008430200082C
:1000A000430200084302000843020008430200081C
:1000B00079280008430200084302000843020008B0
:1000C00043020008430200084302000845260008D6
:1000D00043020008430200084302000843020008EC
:1000E00043020008430200084302000843020008DC
:1000F00043020008430200084302000843020008CC
:1001000043020008430200084302000843020008BB
:10011000B92900084302000843020008430200080E
:10012000430200084302000843020008430200089B
:100130004302000800000000000000004302000825
:10014000430200084302000843020008430200087B
:10015000430200084302000843020008430200086B
:10016000430200084302000843020008430200085B
:1001700043020008430200080000000000000000E5
:10018000430200084302000800F002F800F03CF8C7
:100190000AA090E8000C82448344AAF10107DA45E2
:1001A00001D100F031F8AFF2090EBAE80F0013F0F8
:1001B000010F18BFFB1A43F001031847F03C000081
:1001C000103D0000103A24BF78C878C1FAD8520711
:1001D00024BF30C830C144BF04680C6070470000C1
:1001E0000023002400250026103A28BF78C1FBD840
:1001F000520728BF30C148BF0B6070471FB503F0DE
:1002000043FE1FBD10B510BD00F0E2F81146FFF728
:10021000F5FF02F07FFE00F000F903B4FFF7F2FFF4
:1002200003BC00F001F90000094880470948004775
:10023000FEE7FEE7FEE7FEE7FEE7FEE7FEE7FEE796
:10024000FEE7FEE704480549054A064B70470000F3
:100250006928000889010008900200209008002009
:10026000900400209004002053EA020C00F0698002
:100270002DE9F04B4FF00006002B1FBFB3FA83F5BA
:1002800003FA05F424FA05F65E4012BF1643B2FAEB
:1002900082F502FA05F4C5F120051EBF22FA05FC1D
:1002A00044EA0C04203556EA044C4FEA144418BFC3
:1002B000641C4FF000084FF00009904271EB030CF2
:1002C00039D3002919BFB1FA81F701FA07F6B0FA5C
:1002D00080F700FA07F6C7F120071EBF20FA07FCD7
:1002E00046EA0C062037B6FBF4FCA7EB0507103FE7
:1002F00007F01F0BCBF120060CFA0BFB2CFA06F6CD
:1003000044BFB3460026202FA4BF5E464FF0000B2B
:100310005BEA060C08BF4FF0010B19EB0B09ABFBB6
:10032000027C48EB0608C01B06FB02CC0BFB03CC8F
:1003300071EB0C01C1E70B46024641464846BDE859
:10034000F08B13B54FF000004FF00001AFF30080C9
:10035000BDE81C4070474FF0000200B513469446BC
:100360009646203922BFA0E80C50A0E80C50B1F10D
:100370002001BFF4F7AF090728BFA0E80C5048BF21
:100380000CC05DF804EB890028BF40F8042B08BFBF
:10039000704748BF20F8022B11F0804F18BF00F8BB
:1003A000012B704770477047704710B500F008F890
:1003B000006810BD10B5044600F002F8046010BDDE
:1003C000004870472C020020004870472C02002093
:1003D0007546FFF7F9FFAE4605006946534620F023
:1003E0000700854618B020B5FFF72CFFBDE8204078
:1003F0004FF000064FF000074FF000084FF0000BE1
:1004000021F00701AC46ACE8C009ACE8C009ACE893
:10041000C009ACE8C0098D4670470446AFF30080C0
:100420002046FFF7FAFE000001491820ABBEFEE7A8
:10043000260002007047FEE7704772B6FEE7000034
:1004400010B52DED068BB0EE408AF0EE608A9FED80
:10045000BFAB9FEDC09B9FEDC10B51EC180B53EC54
:10046000102B03F019FB0BD89FEDBE0B51EC180BB2
:1004700053EC102B03F0D6F902D853EC1A2B14E0EE
:100480009FEDBA0B51EC180B53EC102B03F004FB4F
:1004900015D89FEDB80B51EC180B53EC102B03F053
:1004A000C1F90CD89FEDB50B48E151EC180B02F0E7
:1004B00053FF00BF41EC100BBDEC068B10BD9FED50
:1004C000B10B51EC180B53EC102B03F0E5FA0BD8E1
:1004D0009FEDAE0B51EC180B53EC102B03F0A2F96F
:1004E00002D89FEDAC0B29E19FEDAC0B51EC180B42
:1004F00053EC102B03F0D0FA0BD89FEDAA0B51EC64
:10050000180B53EC102B03F08DF902D89FEDA70BBD
:1005100014E19FEDA80B51EC180B53EC102B03F0DA
:10052000BBFA0BD89FEDA50B51EC180B53EC102B1D
:1005300003F078F902D89FEDA30BFFE09FEDA30B2A
:1005400051EC180B53EC102B03F0A6FA0BD89FEDCF
:10055000A10B51EC180B53EC102B03F063F902D8EC
:100560009FED9E0BA8E79FED9F0B51EC180B53ECF2
:10057000102B03F091FA0BD89FED9C0B51EC180B4C
:1005800053EC102B03F04EF902D89FED9A0BD5E0F7
:100590009FED9A0B51EC180B53EC102B03F07CFAE7
:1005A0000BD89FED980B51EC180B53EC102B03F06C
:1005B00039F902D89FED950BC0E09FED960B51ECF9
:1005C000180B53EC102B03F067FA0BD89FED930B2D
:1005D00051EC180B53EC102B03F024F902D89FEDCB
:1005E000910B13E09FED910B51EC180B53EC102B7A
:1005F00003F052FA15D89FED8F0B51EC180B53EC0A
:10060000102B03F00FF90CD89FED8C0B53EC102B33
:1006100051EC180B02F0A0FE41EC100B53EC192B1F
:1006200049E09FED880B51EC180B53EC102B03F0B5
:1006300033FA0BD89FED850B51EC180B53EC102BB4
:1006400003F0F0F802D853EC1A2BE1E79FED810B91
:1006500051EC180B53EC102B03F01EFA0BD89FED46
:100660007F0B51EC180B53EC102B03F0DBF802D886
:100670009FED7C0BCAE79FED7D0B51EC180B53EC03
:10068000102B03F009FA1BD89FED7A0B51EC180BD5
:1006900053EC102B03F0C6F812D89FED780B51ECF9
:1006A000180B53EC102B02F057FE41EC100B9FED92
:1006B000751B53EC112B51EC100B03F0FBFAF9E610
:1006C0009FED720B51EC180B53EC102B03F0E4F977
:1006D0000BD89FED700B51EC180B53EC102B03F063
:1006E000A1F802D89FED6D0B28E09FED6E0B51EC49
:1006F000180B53EC102B03F0CFF90BD89FED6B0BBD
:1007000051EC180B53EC102B03F08CF802D89FED32
:10071000690B13E09FED690B51EC180B53EC102B98
:1007200003F0BAF90DD89FED670B51EC180B53ECA1
:10073000102B03F077F804D89FED640B53EC102BCB
:10074000B3E6B0EE480AF0EE680AB5E6295C8FC25F
:10075000F528E43FCDCCCCCCCCCCDC3F0000000075
:1007600000805FC00000000000005FC000000000CB
:10077000008059C00000000000C058C00000000008
:100780000000F03F00000000004053C000000000E7
:1007900000C052C09A9999999999F13F00000000C0
:1007A00000004AC000000000000049C052B81E8589
:1007B000EB51F03F0000000000803AC00000000054
:1007C000008038C03D0AD7A3703DEA3F000000001A
:1007D0000000F8BF00000000000000400000000022
:1007E0000000000000000000000038400000000091
:1007F00000003A409A9999999999E93F00000000C0
:10080000000049400000000000004A40666666663D
:100810006666EE3F0000000000005340000000004C
:1008200000805340333333333333F33F0000000051
:10083000004059400000000000005A4048E17A148E
:10084000AE47F13F000000000000604000000000E3
:1008500000406040000000000060634000000000B5
:1008600000906340CDCCCCCCCCCCF03F000000005D
:1008700000C066400000000000F06640AE47E17A2C
:1008800014AEF33F000000000000D03F0000000065
:1008900000C069400000000000806A40666666662D
:1008A0006666F23F0000000000806D40000000001E
:1008B00000C06D409A9999999999FD3F00000000F8
:1008C00000707040333333333393704000000000C6
:1008D0000000F43F2DE9F0410446876D00F06EF909
:1008E000064694F835000025022806D08020606571
:1008F00084F834500120BDE8F0812068016821F0BF
:10090000160101602068416921F080014161206C7D
:1009100008B9A06C20B12068016821F008010160CD
:100920002068016821F0010101600CE000F046F947
:10093000801B052807D920206065032084F8350036
:1009400084F83450D7E720680068C007EED194F8E7
:100950005C103F208840B860012084F8350084F89E
:1009600034500020C7E790F83510022903D08021C9
:10097000416501207047052180F835100068016845
:1009800021F00101016000207047000070B50446AD
:1009900000F014F90546601C02D0044800780444B5
:1009A00000F00CF9401BA042FAD370BD5C0000209F
:1009B0002DE9F84FDFF8BCA1002201250AF1040B54
:1009C00003264FF00F090BF1040E00BF0B6805FA68
:1009D00002F42340A34270D10F7907F00307012FDF
:1009E00001D0022F16D187684FEA420806FA08FCA8
:1009F00027EA0C07D1F80CC00CFA08FC4CEA070CEB
:100A0000C0F808C04768A7430C79C4F300149440A9
:100A10003C4344600C79E443A4070AD0C4684FEA1D
:100A2000420C06FA0CF7BC438F6807FA0CF7274311
:100A3000C7600C7904F00304022C12D1D40800EB37
:100A4000840CDCF820405707FF0E09FA07F824EA67
:100A50000804D1F8108008FA07F848EA0408CCF82E
:100A6000208004684FEA420C06FA0CF7BC430F7969
:100A700007F0030707FA0CF7274307604C6814F4E4
:100A8000403F70D03C4C276847F48047276024687B
:100A900022F0030704F480440094384C07EB040C64
:100AA000DCF8084897074FEA177809FA08F7BC43BB
:100AB000334FB84202D1002724E054E0314FB8420E
:100AC00001D101271EE0304FB84201D1022719E0C1
:100AD0002E4FB84201D1032714E02D4FB84201D167
:100AE00004270FE02B4FB84201D105270AE02A4F17
:100AF000B84201D1062705E0284FB84201D10727A7
:100B000000E0082707FA08F72743CCF80878DAF856
:100B100000405746D1F804C09C435FEACC3C00D566
:100B20001C433C60DBF800405F46D1F804C09C43A6
:100B30005FEA8C3C00D51C433C60DEF80040774601
:100B4000D1F804C09C435FEACC2C00D51C433C6028
:100B5000084F0C373C68D1F804C09C435FEA8C2CEA
:100B600000D51C433C60521C102AFFF42FAFBDE897
:100B7000F88F0000003C0140443802400030014042
:100B8000000002400004024000080240000C024045
:100B9000001002400014024000180240001C0240F5
:100BA000426921EA02030A4043EA02418161704737
:100BB0000AB1816170470904FBE7000001488068C1
:100BC000704700005C0000200248816802781144F0
:100BD000816070475C0000200B4810B5016841F44B
:100BE00000710160016841F480610160016841F4B5
:100BF00080710160032000F06FF80F2000F006F80C
:100C000000F024F8002010BD003C024070B50D4DEE
:100C100004464FF47A712878B1FBF0F00A4909686C
:100C2000B1FBF0F000F077FE48B9102C07D200229B
:100C30002146501E00F030F800206C6070BD01208D
:100C400070BD00005C000020680000200A4808B564
:100C5000016841F480410160006800F48040009028
:100C60000548001F016841F080510160006800F0F4
:100C70008050009008BD000044380240002809DB85
:100C800000F01F02012191404009800000F1E020A6
:100C9000C0F8001170470000F0B40E4B1B680C4602
:100CA000C3F30223C3F10705042D00D90425191D40
:100CB000072901D2002300E0DB1E012606FA05F118
:100CC000491E214099409E40761E16403143F0BC9B
:100CD00002F0AFB80CED00E0064900F0070208682A
:100CE0004FF6FF03184040EA0220034A1043086011
:100CF000704700000CED00E00000FA052DE9F04718
:100D00000E46050065D0DFF81481D8F80000F7B270
:100D100000F00700B04207D288F80070D8F8000051
:100D200000F00700B04254D128683D4C810712D52D
:100D3000400703D5206840F4E05020602878000781
:100D400003D5206840F4604020602068A96820F046
:100D5000F000084320602878C0072DD0304968682B
:100D60000839012812D0022813D0032811D00968AD
:100D7000890700292DDA216821F003010143216050
:100D8000FFF71CFF814641F2883A0EE009688903AB
:100D9000EFE709688901ECE7FFF710FFA0EB090115
:100DA000514502D90320BDE8F0872068696800F04A
:100DB0000C00B0EB810FEFD1D8F80010404601F0E5
:100DC0000701B14207D90770006800F00700B04280
:100DD00001D00120E7E72878400705D52068E968B9
:100DE00020F4E050084320602878000706D52068EA
:100DF000296920F4604040EAC100206000F038F822
:100E00002168084AC1F30311515CC84006490860D3
:100E100006480068FFF7FAFE0020C4E7003C0240E5
:100E200008380240923E0008680000206000002060
:100E30000448054900680968044AC1F38221515CED
:100E4000C84070476800002008380240A23E0008F1
:100E50000448054900680968044AC1F34231515CFD
:100E6000C84070476800002008380240A23E0008D1
:100E7000154810B5006810F00C02144813D014493E
:100E8000042A0FD0082A0ED10F4C241F2268236891
:100E900002F03F025B0207D52068C0F38810A0FB78
:100EA000010106E0084610BD2168C1F38811A1FBCD
:100EB00000010023FFF7D8F92168C1F30141491C63
:100EC0004900B0FBF1F010BD083802400024F400E6
:100ED00040787D012DE9F84F04006ED02078DFF8CE
:100EE0004C93C007A9F104054AD009F10400016838
:100EF000C1F38101012908D00068C0F381000228F4
:100F00000AD1D9F80000400206D52868800337D5F9
:100F100060680028E1D033E06068B0F5803F10D011
:100F2000B0F5A02F286810D020F480302860286801
:100F300020F4802028606068A8B1FFF73FFE0646D5
:100F40000DE0286840F48030F4E740F48020286009
:100F5000F7E700BFFFF732FE801B642873D82868CC
:100F60008003F7D50CE0FFF729FE064605E000BF39
:100F7000FFF724FE801B6428F0D828688003F7D48C
:100F80002078DFF8AC8280074FF0000A3ED5A748F2
:100F9000001D016811F00C0F08D00068C0F381003B
:100FA00002280BD1D9F80000400207D42868800736
:100FB00016D5E068012800D112E033E1E068B8B14D
:100FC0000120C8F80000FFF7F9FD064605E000BF64
:100FD000FFF7F4FD801B0228C0D828688007F7D5EA
:100FE0002868216920F0F80040EAC10028600DE07F
:100FF000C8F800A0FFF7E2FD064604E0FFF7DEFDBB
:10100000801B02281FD828688007F7D420780007A3
:1010100022D5864F87486169703771B1012101601F
:10102000FFF7CCFD064604E0FFF7C8FD801B022851
:1010300009D838688007F7D50EE0C0F800A0FFF7A0
:10104000BDFD064605E082E0FFF7B8FD801B0228E3
:101050007DD838688007F7D42078400768D5DFF856
:10106000CCB100270BF13C0BDBF80000C0000BD427
:10107000DBF8001041F08051CBF80010DBF80000E5
:10108000012700F0805000906B4E3068C00510D4EE
:10109000306840F480703060FFF790FD009005E00C
:1010A000FFF78CFD0099401A022850D83068C0051F
:1010B000F6D55E4EA0686C3601280FD00528306842
:1010C00010D020F001003060306820F00400306063
:1010D000A068B8B1FFF772FD00900FE0306840F0F3
:1010E0000100F4E740F004003060F7E7FFF766FD29
:1010F0000099411A41F28830814266D830688007F1
:10110000F4D50EE0FFF75AFD009007E0FFF756FD1B
:101110000099411A41F28830814256D830688007E0
:10112000F4D42FB1DBF8001021F08051CBF800107F
:10113000A069C8B33D49091D0968C1F381010229AD
:101140004AD00228504607D0C8F8600000E03CE0D2
:10115000FFF734FD04463BE04746C8F86000FFF760
:101160002DFD064605E000BFFFF728FD801B022885
:101170002BD828688001F7D4D4E907010843A16A75
:101180002E4A490802EB0141626A41EA8211084392
:1011900094F82C1040EA0161C9F80010012038666B
:1011A000FFF70CFD044606E03EE000BFFFF706FD3A
:1011B000001B022809D828688001F7D534E000BF59
:1011C000FFF7FCFC001B022802D90320BDE8F88FC2
:1011D00028688001F4D427E00128F7D0D9F800006E
:1011E000E26900F4800191421CD1226A00F03F01C3
:1011F000914217D147F6C071626A0140B1EB821F7C
:1012000010D1A26A4FF0FF3300F4403103EB5202D9
:10121000B1EB024F06D194F82C1000F07060B0EBE7
:10122000016F01D00120D1E70020CFE70438024050
:1012300000004742800E4742007000400000FFFF60
:101240007047000038B5016804464A688868C043A2
:10125000430606D5C30704D1D3435B0601D4216CF2
:1012600005E0830708D4D3431B0605D4616C01B0A5
:101270002046BDE830400847830603D5430601D524
:10128000C30551D4D3439B064ED443060AD494F8E5
:101290005130032B49D0636D43F004036365CB6881
:1012A0008B680093830609D4636D43F00103636583
:1012B0008B6800930B6823F040030B60C00506D4D5
:1012C000606D40F008006065206880680090606D87
:1012D000002829D02068416821F0E0014160012008
:1012E00084F85100900701D4D00722D020684168CB
:1012F00021F003014160114DE06C40B10565E06CE7
:10130000FFF731FB18B1606D40F040006065A06CE4
:10131000002809D00565A06CFFF725FB002803D045
:10132000606D40F04000606538BDC8688868009016
:1013300038BD2046FFF784FF38BD00005126000865
:1013400070B5040009D0606A002540B1256165616F
:10135000A56294F8510040B10CE0012070BD6068B6
:10136000B0F5827FF4D0E561F2E784F85050204672
:1013700000F044F8022084F851002068016821F050
:1013800040010160A088218900F4827001F40441C9
:101390000843A18901F400610843217C01F00201A6
:1013A0000843217D01F001010843218B01F4007104
:1013B0000843217F01F03801084394F8201001F020
:1013C00080010843218D01F4005108432168086021
:1013D000A069042101EA104094F8241001F01001E2
:1013E0000843216848602068C16921F40061C16137
:1013F0006565012084F85100002070BD10B586B0ED
:10140000044614216846FEF7A6FF17492068884263
:1014100028D116480021026842F480520260006818
:1014200000F48050059011481438026842F001021F
:101430000260006800F001000590E02000900220AA
:10144000CDE9010103200390052004906946084876
:10145000FFF7AEFA002211462320FFF71DFC2320E0
:10146000FFF70CFC06B010BD0030014044380240CC
:10147000000002402DE9F84F0446406800259846D8
:1014800016460F464FF0040BB0F5827F01D1A068DD
:1014900088B194F85000012818D0012084F8500039
:1014A000FFF78CFB814694F851004FF0000A0128A9
:1014B0000ED0022582E084F851B013460A46204639
:1014C000CDF8008000F036F9BDE8F88F0220FBE788
:1014D000002F72D0002E70D084F851B0C4F854A000
:1014E000A763A687E687C4F830A0A4F834A0A4F8C0
:1014F00036A0C4F840A0C4F844A0A068B0F5004FDE
:1015000009D12068016821F040010160206801686C
:1015100021F48041016020680168490603D4016814
:1015200041F040010160E068D8B139E0206881688D
:10153000C90709D0007BA16B0870A06B401CA06399
:10154000E08F401EE0870CE0FFF738FBA0EB0901BD
:10155000414503D3B8F1FF3F03D036E0B8F1000FA7
:1015600033D0E08F0028E1D11DE020688168C907F1
:1015700009D0C068A16B0880A06B801CA063E08FBD
:10158000401EE0870CE0FFF719FBA0EB0901414585
:1015900003D3B8F1FF3F03D017E0B8F1000F14D028
:1015A000E08F0028E1D14A464146204601F058F834
:1015B00008B120206065606D00B10125012084F82C
:1015C000510084F850A028467EE70325F6E72DE970
:1015D000F84F044690F8500000271D4616468946ED
:1015E00001280DD04FF0010B84F850B0FFF7E6FA58
:1015F000804694F85100BA46012804D0022793E0AF
:101600000220BDE8F88FB9F1000F73D0002E71D021
:10161000032084F85100C4F854A0C4F83090A68682
:10162000E686C4F838A0A4F83CA0A4F83EA0C4F80C
:1016300044A0C4F840A0A068B0F5004F09D12068CC
:10164000016821F0400101602068016841F4804197
:10165000016020680168490603D4016841F0400137
:101660000160E068B0F5006F606803D030B3012E10
:1016700024D041E008B1012E1CD1206B21680088E4
:10168000C86006E020688168890709D5216B098850
:10169000C160206B801C2063E08E401EE08609E064
:1016A000FFF78CFAA0EB0800A84202D3681C01D017
:1016B00031E07DB3E08E0028E4D120E0206B21688A
:1016C0000078087306E020688168890709D5216BD6
:1016D00009780173206B401C2063E08E401EE08679
:1016E0000AE0FFF76BFAA0EB0800A84203D3681CDE
:1016F00002D010E017E06DB1E08E0028E3D1424641
:101700002946204600F0DAFF08B120206065A06875
:1017100018B106E0FFE7032706E02068C16880688B
:101720000090606D00B1012784F851B084F850A09A
:10173000384666E72DE9F84F044690F85000002738
:101740000A9E1D4692468B464FF0010901280ED095
:10175000012084F85000FFF731FA804694F85100D8
:10176000616801280CD0B1F5827F07D102E0022028
:10177000BDE8F88FA16809B9042801D00227C2E0AA
:10178000BBF1000F27D0BAF1000F24D01DB394F89D
:101790005100042802D0052084F851000020606523
:1017A000C4F838A0E587A587C4F830B0E586A586DB
:1017B0002064606420680168490603D4016841F030
:1017C00040010160E068B0F5006F606805D0E8B3E3
:1017D000012D46D07FE0012795E008B1012D39D1D8
:1017E000206B21680088C860206B801C2063E08E1D
:1017F000401EE0862EE02068816889070FD5E18EC3
:1018000069B1B9F1010F0AD1216B0988C160206B60
:10181000801C2063E08E401EE0864FF000092068A7
:101820008168C9070CD0E18F51B1C068A16B0880F5
:10183000A06B801CA063E08F401EE0874FF0010981
:10184000FFF7BCF9A0EB0800B04200E009E001D3CB
:10185000701C50D1E08E0028CDD1E08F0028CAD175
:101860003FE0206B216800780873206B401C2063E8
:10187000E08E401EE0862EE02068816889070FD543
:10188000E18E69B1B9F1010F0AD1216B09780173B9
:10189000206B401C2063E08E401EE0864FF0000964
:1018A00020688168C9070CD0E18F51B1C068A16B75
:1018B0000870A06B401CA063E08F401EE0874FF0D3
:1018C0000109FFF77BF9A0EB0800B04202D3701CBE
:1018D00001D010E07EB1E08E0028CDD1E08F00284D
:1018E000CAD142463146204600F0E8FE28B1012721
:1018F0002020606507E0032705E0A06818B920688C
:10190000C16880680090012084F85100002084F8AC
:10191000500038462CE710B5401EB0F1807F01D34F
:10192000012010BD4FF0E02460610F21601701F02D
:1019300080FA0020A06107202061002010BD7047C0
:101940007047000070B590F83C20012A32D0012485
:1019500080F83C40022280F83D2003685A689D6868
:1019600022F070060A6832435A60134B02689A42AA
:1019700014D0B2F1804F11D0104B9A420ED0104BC0
:101980009A420BD00F4B9A4208D00F4B9A4205D087
:101990000E4B9A4202D00E4B9A4204D1496825F070
:1019A00080031943916080F83D40002180F83C108D
:1019B000084670BD022070BD0000014000040040D8
:1019C00000080040000C00400004014000400140BD
:1019D0000018004010B5040003D094F83D0010B189
:1019E00007E0012010BD002084F83C00204600F0F4
:1019F0001FF8022084F83D00211D206800F042FFFE
:101A0000012084F8460084F83E0084F83F0084F802
:101A1000400084F8410084F8420084F8430084F8D0
:101A2000440084F8450084F83D00002010BD00000B
:101A300008B50068B0F1804F12D10A48016841F042
:101A4000010101600068002200F0010000901146D1
:101A50001C20FFF721F9BDE808401C20FFF70EB954
:101A600008BD00004038024090F83D10012901D027
:101A700001207047022180F83D100168CA6842F0D9
:101A80000102CA6000681149884214D0B0F1804F49
:101A900011D00F4988420ED00E4988420BD00E4912
:101AA000884208D00D49884205D00D49884202D0AD
:101AB0000C49884204D1816801F00701062903D04E
:101AC000016841F001010160002070470000014001
:101AD0000004004000080040000C004000040140E9
:101AE000004001400018004070B5044690F83C00EA
:101AF0000025012817D0012684F83C60022084F8D4
:101B00003D002068826822F0770222F47F428260E2
:101B10000868502838D00DDC20284FD005DC90B361
:101B2000102811D14AE0022070BD302846D040284C
:101B30000AD13BE060282FD070280DD0B0F5805F2F
:101B400003D0B0F5005F12D0012584F83D6000207D
:101B500084F83C00284670BDCB68D1E9012120689B
:101B600000F0F4FE2068816841F0770109E0CB685D
:101B7000D1E90121206800F0E9FE2068816841F484
:101B800080418160E1E719E0CA684968206800F097
:101B9000EFFE5021206806E0CA684968206800F01E
:101BA000F8FE6021206800F0DBFECEE7CA684968D5
:101BB000206800F0DDFE40212068F4E7226801463D
:101BC0001046F0E7704770B50446006801694FF0B1
:101BD0000005C943890715D4C168C943890711D4D1
:101BE000E91E016101202077206880698007204676
:101BF00002D0FFF7E7FF04E000F098F8204600F07D
:101C000096F8257720680169C943490717D4C16848
:101C1000C943490713D46FF0040101610220207702
:101C20002068806910F4407F204602D0FFF7CAFF89
:101C300004E000F07BF8204600F079F82577206872
:101C40000169C943090716D4C168C943090712D4F9
:101C50006FF008010161042020772068C0698007C7
:101C6000204602D0FFF7AEFF04E000F05FF8204608
:101C700000F05DF8257720680169C943C90617D4CB
:101C8000C168C943C90613D46FF01001016108206F
:101C900020772068C06910F4407F204602D0FFF70B
:101CA00091FF04E000F042F8204600F040F825776C
:101CB00020680169C943C90708D1C168C943C90778
:101CC00004D1891E0161204600F032F820680169C4
:101CD000C943090609D4C168C943090605D46FF090
:101CE000800101612046FFF72AFE20680169C9438F
:101CF000490609D4C168C943490605D46FF04001BB
:101D00000161204600F05EF820680169C943890638
:101D10000BD4C168C943890607D46FF02001016163
:101D20002046BDE87040FFF70BBE70BD704770479E
:101D30002DE9F0411F4988423AD11F4C1F4E002522
:101D4000206A4FF48077401C2062642807D1256206
:101D500060683946401C60603046FEF721FF6068CD
:101D60003C2808D16560A0684FF40071401CA06059
:101D70003046FEF715FFA0683C2807D1A560E06853
:101D80003946401CE0600E48FEF70AFF606A0028F2
:101D90000ED0A06A401CA062B0F5FA7F08DB656235
:101DA0003046A562BDE8F04100220121FEF700BFE8
:101DB000BDE8F0818C0100200800002000080240EE
:101DC000000002407047704770470000F8B5016896
:101DD00004460868CA684B6910F00F0F4FF0000501
:101DE0005AD003F0010602F49077374365D0C1075B
:101DF00005D0D10503D5216C41F0010121644107D3
:101E000005D5D90703D0216C41F002012164810777
:101E100005D5D90703D0216C41F0040121640107E5
:101E200007D502F02001314303D0216C41F00801B5
:101E30002164216C00293BD0800604D5900602D590
:101E4000204600F0EEFD20684069216CC0F3801050
:101E500001F00801014320462BD000F0BBFD2068B3
:101E60004069400621D52068143050E8001F21F059
:101E7000400140E80012002AF5D1A06BA8B16C49DE
:101E80000165A06BFEF76FFD002811D0A06B016DFE
:101E900001B0BDE8F040084783060ED593060CD587
:101EA0002046BDE8F84000F0BCBD2046FFF78CFF9F
:101EB000F8BDFFF789FF2564F8BD266B2023012EAE
:101EC00079D1C60677D5D60675D5086848680090DA
:101ED0004869400640D5A16B086840680004000CC2
:101EE000EAD0A28D8242E7D9E085C869B0F5807F4B
:101EF0002DD020680C3050E8001F21F4807140E89C
:101F00000012002AF5D12068143050E8001F21F09B
:101F1000010140E80012002AF5D12068143050E891
:101F2000001F21F0400140E80012002AF5D184F89A
:101F30003E30256320680C3050E8001F21F010016E
:101F400040E80012002AF5D1A06BFEF7C3FCA08D7B
:101F5000E18D401A81B229E0A08DE18D401A81B255
:101F6000E08D0028A8D00029A6D020680C3050E8C9
:101F7000002F22F4907240E80026002EF5D1206850
:101F8000143050E8002F22F0010240E80026002E15
:101F9000F5D184F83E30256320680C3050E8002FDE
:101FA00022F0100240E80023002BF5D12046FFF775
:101FB0000AFFF8BDFFE705062BD5150629D594F8CD
:101FC0003D002128F5D1A068B0F5805F01D12069DE
:101FD000B0B1206A411C2162216800784860E08C21
:101FE000401E0004000CE084E3D12068C16821F0A9
:101FF0008001C1602068C16841F04001C160D8E73C
:10200000206A0088C0F308004860206A801C2062B3
:10201000E5E74006CDD55006CBD5CA68204622F06C
:102020004002CA6084F83D3000F047F9C1E7000083
:10203000C529000870B5040004D094F83D000025BF
:1020400010B106E0012070BD84F83C50204600F03D
:1020500023F8242084F83D002068C16821F4005151
:10206000C160204600F03EFD2068016921F49041E6
:1020700001612068416921F02A0141612068C1683D
:1020800041F40051C1602564202084F83D0084F8AB
:102090003E00002070BD000010B586B0044614213B
:1020A0006846FEF758F917492068884227D1164834
:1020B0000021026842F400220260006800F400205F
:1020C000059011481038026842F001020260006871
:1020D000022200F0010005900320CDE90210CDE9B5
:1020E00000020820049069460848FEF761FC0022BF
:1020F00011463420FEF7D0FD3420FEF7BFFD06B0B8
:1021000010BD0000004C004040380240000002407A
:1021100090F83E30202B0ED159B152B190F83C309E
:10212000012B08D0012380F83C300023036300F02A
:102130005FBD0120704702207047000070B5006845
:102140002D4988422AD101222C492D48FFF7E0FF72
:102150002A482B49002382684431AAB1012A19D0A8
:10216000022A20D0032A22D0042A29D0052A2BD0E3
:1021700004788C54521C82608C78E41C94420DD1FB
:102180004288202A29D018E00278A52A06D10A70B0
:10219000012106E002785A2A01D0836070BD4A709E
:1021A0000221816070BD02788A700321F9E702780C
:1021B000832A02D1CA700421F3E783608B7070BD5B
:1021C00002780A710521ECE702784A7106238360E0
:1021D000097902EB0121418070BD8A7ACC794D7A70
:1021E00002EB04620C7A240404EB05242244054C1F
:1021F00042602260E1E70000004C004050000020F7
:10220000D4010020000000202DE9F843044690F896
:102210003D001F4616460D4620284CD1C5B1BEB123
:1022200094F83C00012846D0012084F83C004FF08F
:102230000008C4F84080212084F83D00FEF7BEFC71
:10224000A6848146E684A068B0F5805F03D004E0F0
:102250000120BDE8F883206928B12E465FF0000513
:1022600084F83C800EE00026FAE78021204600F04A
:10227000DAFCA0B9AEB116F8010B21684860E08C19
:10228000401EE084E08C4B464FF00002009700288F
:10229000EBD14FF04001204600F0C5FC30B10320E7
:1022A000D7E735F8020BC0F30800E6E7202084F8F2
:1022B0003D000020CDE70220CBE77047FEE700009D
:1022C00010B501202DED048B9FED278B00F076F8E3
:1022D0004FF6FF7101EA0024022000F06FF820435E
:1022E000400801F08BFA9FED221B53EC112B01F0FB
:1022F000D5FA9FED211B53EC112B01F0CFFA9FED86
:10230000221B9FED1F9B53EC112B01F0D9F89FED81
:10231000201B53EC112B01F0F5FB41EC100B9FED52
:102320001E1B53EC102B51EC110B01F0B7FA41ECD2
:10233000100B9FED1B1B53EC102B51EC110B01F0FC
:10234000B9FC41EC100B00F08EFD53EC182B51EC56
:10235000100B01F0AFFC53EC192B01F0B1F8BDEC00
:10236000048B41EC100B10BD1C64ED4A2602703F3B
:102370000000000000E07A40000000000000003F84
:1023800088CE19EEAF60B3BE0000000000005940D7
:10239000000000000000F03F88CE19EEAF60C3BE21
:1023A000D828C9DF4C04F03E10B5D321802000F0BE
:1023B00025F8BDE810401420FEF7E8BA11B50D4C21
:1023C00081B0002210212046FEF7F2FB6423012297
:1023D00001A90948FFF7FBF8642301226946064872
:1023E000FFF748F8012210212046FEF7E1FB9DF897
:1023F00000001CBD000002403401002038B50B4C29
:102400008DF800008DF80110002210212046FEF703
:10241000CFFB6423022269460548FFF7D8F8012262
:1024200010212046FEF7C4FB38BD0000000002402A
:10243000340100202DE9F04F87B014216846FDF7E4
:102440008AFF40480025016841F0040101600168ED
:1024500001F004010591016841F08001016001680B
:1024600001F080010591016841F0010101600168FE
:1024700001F001010591016841F008010160006867
:10248000DFF8C4A000F008000590002240F20131FE
:102490005046FEF78DFBDFF8B4B0012210215846FC
:1024A000FEF786FB4FF48079002249465846FEF736
:1024B0007FFB4FF4005002268DE8610069465046CC
:1024C000FEF776FA01240327CDE902470094694616
:1024D00050460194FEF76CFA4FF0100801AACDF8AF
:1024E000008082E8B00069465846FEF761FACDF8F0
:1024F0000080CDE9015469465046FEF759FA38028A
:10250000CDE90004CDE9024669465046FEF750FA8F
:10251000CDE90094CDE9024669465846FEF748FAEF
:10252000E0038DE8610069465846FEF741FA042051
:102530008DE8610069460648FEF73AFA07B0BDE843
:10254000F08F0000303802400008024000000240D6
:10255000000C0240104810B50E4901604FF4827122
:102560004160002102228160C0E903120122426120
:10257000520282613022C0E90721416281620A2150
:10258000C162FEF7DDFE002803D0BDE81040FDF774
:1025900054BF10BD003001403401002010B586B09A
:1025A00000241748009401940294039404944FF07B
:1025B00080410594016042F2CF01C0E9011463211A
:1025C000C0E9031480218161FFF704FA08B1FDF727
:1025D00034FF4FF48050009069460948FFF784FAB1
:1025E00008B1FDF72AFF049404A905480594FFF7F4
:1025F000A9F9002801D0FDF720FF06B010BD0000AA
:102600008C0100200C4810B50A4901604FF4E131FB
:102610004160002181600C22C160C0E90412816127
:10262000C161FFF707FD002803D0BDE81040FDF7AA
:1026300004BF10BD004C0040D4010020FEE7FEE7BF
:10264000704700000148FEF7FDBD00003401002086
:1026500010B5806B0021C187C186FEF7F1FD10BD6A
:10266000F8B5044640684FF48273984221D1A068BF
:102670004FF48065B0F5004F01D0A8420AD1206820
:10268000066826F0400606606068984211D1A0688E
:10269000A8420ED000920B4600228021204600F076
:1026A00039F8002804D0606D40F0200060650320F8
:1026B000F8BD00920B4600220121EFE738B5044631
:1026C0001248134B0068B0FBF3F04FF47A73584391
:1026D00000906068B0F5827F0DD10B460092002219
:1026E0008021204600F016F870B1606D40F02000A7
:1026F0006065032038BD009830B1401E009020680E
:102700008068C0430006F6D5002038BD6800002070
:1027100000366E012DE9F8431E4691468846044670
:10272000089DFEF74BFA401B351AFEF747FA07469D
:1027300025480068C0F3CB30684338E0701C37D0C0
:10274000FEF73CFAC01BA84203D215B1009860B353
:102750002CE02068416821F0E00141606068B0F53C
:10276000827F0BD1A068B0F5004F02D0B0F5806F2A
:1027700004D12068016821F040010160A06AB0F531
:10278000005F09D12068016821F4005101602068D0
:10279000016841F400510160012084F851000020DB
:1027A00084F850000320BDE8F8830025401E009007
:1027B0002068816838EA010004D000214945BDD174
:1027C0000020F0E70121F9E7680000207047FEF7DC
:1027D000FBB9000030B593B030216846FDF7BBFD72
:1027E00014210CA8FDF7B7FD1D480025016841F034
:1027F00080510160006800F0805011901948016814
:1028000041F4804101600068022400F4804011908E
:102810000120039010200490009406940820CDE934
:102820000750A820CDE9090404200B906846FEF764
:1028300051FB08B172B6FEE70CA90F2081E8310008
:102840004FF4A0500F904FF48050109005210CA829
:10285000FEF754FA002801D072B6FEE713B030BD7F
:1028600040380240007000400248016841F47001A5
:102870000160704788ED00E00148FFF7A4B900004F
:102880008C010020F0B50268254C264D264E274FBE
:10289000274B4FF0804CA04209D0604507D0A8429A
:1028A00005D0B04203D0B84201D0984204D122F002
:1028B000700E4A6842EA0E02A0421BD0604519D051
:1028C000A84217D0B04215D0B84213D0984211D0C8
:1028D000184DA8420ED0184DA8420BD0174DA84253
:1028E00008D0174DA84205D0164DA84202D0164D6B
:1028F000A84203D122F44075CA682A434D6922F0E8
:1029000080022A4302608A68C2620A688262A04228
:1029100001D0984201D10969016301214161F0BDF3
:10292000000001400004004000080040000C00408E
:1029300000040140004001400044014000480140C3
:1029400000180040001C00400020004010B58468C2
:1029500042EA032224F47F440A432243826010BDEA
:10296000826822F070020A4342F0070181607047DA
:1029700010B5036A046A24F001040462846924F037
:10298000F00444EA021423F00A020A43846102625A
:1029900010BD10B5036A23F0100303628369046A53
:1029A00023F4704343EA023224F0A00343EA011106
:1029B0008261016210BD00000148FFF707BA000004
:1029C000D401002010B5806B0021C185C184FFF7C0
:1029D000FBF910BD01680C3151E8002F22F4907210
:1029E00041E80023002BF5D10168143151E8002F94
:1029F00022F0010241E80023002BF5D1016B0129EF
:102A000009D101680C3151E8002F22F0100241E891
:102A10000023002BF5D1202180F83E100021016316
:102A2000704708B590F83E10222901D0022008BD59
:102A300082684FF480539A4201D1016921B1816AC1
:102A40009A421BD04AB10AE00268816A5268C2F316
:102A500008020A80816A891C08E0026972B1026872
:102A6000526802F07F020A70816A491C8162C18D3E
:102A7000491E0904090CC18503D019E00268526897
:102A8000F1E70168CA6822F02002CA600168CA68DA
:102A900022F48072CA6001684A6922F001024A6128
:102AA000202180F83E10016B012903D0FFF746FB7F
:102AB000002008BD0021016301680C3151E8002F9E
:102AC00022F0100241E80023002BF5D101680A68CA
:102AD000D20602D50A6849680091818DFFF773F923
:102AE000E6E7000070B5044600680169E26821F479
:102AF0004051114301612169A068E269084361699D
:102B0000114308432168CA6849F20C639A4302439F
:102B1000CA6020684169A26921F440711143416192
:102B200031492068884202D03049884202D1FEF7FC
:102B30008FF901E0FEF77CF9E26900231921642591
:102B40003226B2F5004F626828D0A0FB0101930F36
:102B50009200FDF789FB0146B0FBF5F06FF018021B
:102B6000504301EB800006EB0010B0FBF5F000F0E5
:102B7000F002B1FBF5F002EB0012B1FBF5F06FF0E3
:102B80001803584301EB800006EB0010B0FBF5F092
:102B900000F00F0021681044886070BDA0FB0101A7
:102BA00092185B41FDF760FB0146B0FBF5F00201B6
:102BB000B1FBF5F06FF01803584301EB800006EB12
:102BC000C000B0FBF5F000F0F80002EB4002B1FBF2
:102BD000F5F0584301EB800006EBC000B0FBF5F0C8
:102BE00000F00700D6E7000000100140001401408B
:102BF00081628285C28500210164222280F83E2004
:102C000080F83C100168CA6842F48072CA600168AA
:102C10004A6942F001024A610068C16841F020013E
:102C2000C160002070472DE9F041984617460E46D6
:102C30000446069D27E0681C25D02DB1FDF7BEFF98
:102C4000A0EB0800A8421ED920680C3050E8001FF5
:102C500021F4D07140E80012002AF5D12068143028
:102C600050E8001F21F0010140E80012002AF5D1D0
:102C7000202084F83D0084F83E00002084F83C00C9
:102C80000320BDE8F0812068006836EA000004D027
:102C90000020B842CFD00020F3E70120F9E7000080
:102CA00010B586B0044614216846FDF754FBA520F4
:102CB0008DF800005A208DF8010004208DF80200E4
:102CC00083208DF80300200A8DF804008DF805405C
:102CD00002208DF806006423072269460348FFF7A7
:102CE00093FA0348006806B010BD0000D40100202C
:102CF0000000002030B585B00C460546142168461A
:102D0000FDF729FBA5208DF800005A208DF8010061
:102D100007208DF8020082208DF80300280A8DF824
:102D200004008DF80550200E8DF80600200C8DF85B
:102D30000700200A8DF808008DF8094064230A2254
:102D400069460248FFF760FA05B030BDD4010020A3
:102D50002DE9F04786B005460FA8884690E8100692
:102D60001E46174614216846FDF7F5FAA5208DF892
:102D700000005A208DF801000A208DF802008221FF
:102D80008DF80310290A8DF8041098FBF0F298FBD7
:102D9000F0F100FB128202EB01118DF805508DF865
:102DA000061097FBF0F197FBF0F200FB117101EBBD
:102DB00002118DF8071096FBF0F196FBF0F200FB84
:102DC000116101EB02118DF8081094FBF0F194FBF6
:102DD000F0F200FB114101EB02118DF8091094FB98
:102DE000F0F194FBF0F200FB114101EB021199FBB1
:102DF000F0F28DF80A1099FBF0F100FB129202EB51
:102E000001119AFBF0F200FB12A29AFBF0F002EB28
:102E100000108DF80B108DF80C0064230D2269460C
:102E20000248FFF7F1F906B0BDE8F087D4010020B1
:102E3000FEE70907090E002804DB00F1E02080F816
:102E40000014704700F00F0000F1E02080F8141D1E
:102E500070472DED020B019820F0004001909DED90
:102E6000000B02B0704700B52DED048BB0EE409A18
:102E7000F0EE609A83B051EC190B00F04FFE41EC7C
:102E8000180B18EE100A18EE901A8DED008B002822
:102E900018BF0120084320F00040C0F17F6000F11E
:102EA000E040C00F14D019EE101A19EE900A8DED03
:102EB000009B002918BF0121084320F00040C0F109
:102EC0007F6000F1E040C00F04BF0120FDF772FAFF
:102ED000B0EE480A03B0F0EE680ABDEC048B00BD0A
:102EE00030B501EB81030A4900EB800401EB83025A
:102EF00001EB84001569056195688560556845603A
:102F000051F8233041F82430D168C16030BD000051
:102F10006C0000202DED028B84B0FDF75DFEFFF705
:102F200059FCFFF787FAFFF715FBFFF76BFBFFF77D
:102F300035FBFFF739FAFD48FEF796FD0122FC4903
:102F4000FC48FFF7E5F8DFF8F083072508F1500AA1
:102F500008F13C0B08F1280708F11406DFF8D093BC
:102F60000F234C46201D07C803900095CDE9012191
:102F7000052216218020FFF7EBFE206B00287CD075
:102F800044460CE058B1012822D002283BD0032847
:102F900054D004286CD0401C0528F3DB16E14FF414
:102FA0000070E168FFF7A6FE4FF480602169FFF72B
:102FB000A1FE94E8070003900095CDE901210F23BD
:102FC000052216214FF44070FFF7C2FE0120D9E719
:102FD000D948016A4FF40470FFF78CFE4FF4826009
:102FE0003169FFF787FED6E9010261690391009517
:102FF000CDE901200F23052216214FF44470FFF77D
:10300000A7FE0220BEE7CC48416B4FF40870FFF7E3
:1030100071FE4FF484603969FFF76CFED7E9010255
:10302000A16A03910095CDE901200F230522162105
:103030004FF44870FFF78CFE0320A3E7BE48816C75
:103040004FF40C70FFF756FE4FF48660DBF810105B
:10305000FFF750FEDBE90112E06B03900095CDE92C
:1030600001210F23052216214FF44C70FFF770FE4B
:10307000B148C16D4FF4107000E016E0FFF73AFE62
:103080004FF48860DAF81010FFF734FEDAE9010136
:10309000226DCDE90051CDE902020F230522162150
:1030A0004FF45070FFF754FE90E0002489E044B1E3
:1030B000012C1ED0022C35D0032C4CD0042C64D013
:1030C0007EE04FF40070D8F80C10FFF713FE4FF4B9
:1030D0008060D8F81010FFF70DFE98E80700039005
:1030E0000095CDE901210F23052216214FF44070F0
:1030F00064E09148016A4FF40470FFF7FBFD4FF460
:1031000082603169FFF7F6FDD6E90112D8F81400A4
:1031100003900095CDE901210F23052216214FF4DC
:1031200044704BE08448416B4FF40870FFF7E2FDB8
:103130004FF484603969FFF7DDFDD7E90112D8F853
:10314000280003900095CDE901210F2305221621C7
:103150004FF4487032E07848816C4FF40C70FFF700
:10316000C9FD4FF48660DBF81010FFF7C3FDDBE903
:103170000102D8F83C1000950391CDE901200F23FE
:10318000052216214FF44C7018E06B48C16D4FF4C6
:103190001070FFF7AFFD4FF48860DAF81010FFF7FA
:1031A000A9FDDAE90112D8F8500003900095CDE9A5
:1031B00001210F23052216214FF45070FFF7C8FD9F
:1031C000641CD9F82C008442FFF671AF99ED0E0B08
:1031D0004C4689ED100BFFF773F884ED0E0B9FED55
:1031E000571B51EC100B53EC112B00F055FC02D384
:1031F00094ED0E0B03E094ED100B84ED0E0BFDF738
:103200001FF984ED0E0B9FED4F8B51EC100B53EC1F
:10321000182B00F043FB00F0ABFA014620611020B0
:10322000FFF768FDA06960612020FFF739FD0A21E2
:1032300090FBF1F0A0616169814216D194ED0E0B13
:1032400053EC102B94ED100B51EC100B00F032FDF1
:1032500041EC100BFFF7FDFD9FED3C1B51EC100BFB
:1032600053EC112B00F018FC01D8012000E00020E5
:10327000E061A06900F0ABFA94ED0E1B53EC112B4A
:1032800000F0D0FA40D8E06901283DD103210420A4
:10329000FFF726FE02210320FFF722FE0121022074
:1032A000FFF71EFE00210120FFF71AFE6168C8F833
:1032B0000010A168C8F80410E168C8F8081094ED7F
:1032C0000E0B53EC182B51EC100B00F0E7FA00F04A
:1032D0004FFAC8F80C00A06900EB80004100C8F864
:1032E0001010E06A401CE062052803D10020E06273
:1032F00001202063012060620020E0610122A062C1
:1033000011461448FDF754FCA06900F060FA94EDF2
:103310000E1B53EC112B00F0BFFB01D20120E0612A
:103320004FF49670FDF732FB18E600008C01002088
:1033300008000020D40100206C00002000000000E4
:1033400000E070400000000000408F4000000000DE
:1033500000002A400008024010B591EA030F48BF60
:1033600083F0004300F1AE84841A71EB030C05D2A4
:10337000121943EB0C03001B61EB0C01DFF824E195
:103380004FEA1154A4EB135C1EEA430F18BF9EEAE8
:10339000445F73D023EA0E03DCF1200E21EA0451CE
:1033A00043F4801332D322FA0CFE10EB0E0023FA02
:1033B0000CFE41EB0E01CCF1200E03FA0EFE10EBD9
:1033C0000E0051F10001B1F5801FCCF1200E32D278
:1033D00001EB045112FA0EF2BDE8104058BF7047DD
:1033E000401C38BF5FEA420218BF7047002814BF74
:1033F00020F0010041F100014FEA410313F5001FE5
:1034000038BF7047A1F1C04100F040BB012A43EB37
:103410000302ACF1200CDCF11F0E32BF4FF0000EA6
:1034200023FA0CF310EB030041EB0451B4EB115FF2
:10343000D0D0A1EB045101F5801149085FEA3000BA
:1034400001EB04510ED350F1000038BF12FA0EFE0A
:1034500008D1BDE81040C9E7401C38BF5FEA42020E
:10346000CAD1C3E7BDE810404FEA410313F5001F7E
:1034700038BF7047A1F1C04100F008BB9EEA445F2D
:1034800008D011EA5E0FBDE8104004BF01F0004112
:1034900000207047BDE8104070B500F0A9FA00BFE9
:1034A00064FBBE3E0000E0FF491058BFC1F140413F
:1034B0005B1058BFC3F140438B42EFF3008070476D
:1034C0002DE9C04130B4DFF8A0C23CEA111418BFA6
:1034D0003CEA131400F0EC8081EA03051CEA1114A5
:1034E00044EAD57418BF1CEA131500F0C780A4EB9A
:1034F00005044FF0004545EAC12145EAC32341EAEE
:10350000505143EA525304F17F74994204F5003458
:103510004FEAC0204FEAC22208BF904200F09C80D0
:103520004FEA13650FF24016765D4FEA134506FB2E
:1035300005F7C7F1807706FB07F74FEAD737A7FBF8
:1035400003687642C8F58038A7FB06CE38BFA8F1DD
:10355000010807FB08E64FF0000EA6FB028CE6FB15
:1035600003CEDCF1000CCEF1004E38BFAEF1010EFF
:10357000A6FB0C584FF000074FF00005E6FB0E8746
:10358000A1FB08C6A0FB07CE16EB0E0645F1000511
:10359000E1FB076515F1E04E7EBFA4F580345FEADC
:1035A00046066D4116F1800745F100054FEA1727E1
:1035B0004FEA066647EA0567A6F1DE46B6F1805F88
:1035C0004FEA15251FD9384624F0010C05EBC471CC
:1035D000BCF1FE6F01EB0C1102D8F0BCBDE800811C
:1035E00024425CBF01F5801E9EEAC47F02D4F0BC79
:1035F000BDE80081244238D4F0BCA1F1C041BDE84F
:10360000004100F043BA4FEAD22242EA43524FEA65
:10361000D323A7FB02864FEAD02040EA415007FBA4
:1036200003661EEA0E0F4FEAD12105FB026658BF62
:10363000A6EB0056B6EB00564FEA520E4EEAC37E9A
:1036400018EB0E0E56EB530EBDD518EB02085E417B
:103650007F1C55F10005B6E74FF480154FF00007C9
:103660004FF000064FF00008ADE7F0BC4FF000004F
:1036700001F1C04101F00041BDE8008111EA0C1FD9
:103680000CEA131500D00CE013EA0C1F00F02580A3
:103690004FF00000F0BC81EA030101F00041BDE8F9
:1036A0000081F0BCBDE8004181EA030100F0EEB901
:1036B000F0BCBDE8004170B500F09AF9097EFC3E0F
:1036C00000F007B881EA03014FF0000001F000416B
:1036D000704781EA030100F0D9B9F0BCBDE80041B0
:1036E0004FF0000021497047FFFDFBF9F7F5F4F2B8
:1036F000F0EEEDEBE9E8E6E4E3E1E0DEDDDBDAD88D
:10370000D7D5D4D3D1D0CFCDCCCBCAC8C7C6C5C4EA
:10371000C2C1C0BFBEBDBCBBBAB9B8B7B6B5B4B301
:10372000B2B1B0AFAEADACABAAA9A8A8A7A6A5A4EC
:10373000A3A3A2A1A09F9F9E9D9C9C9B9A999998B0
:103740009797969595949393929191908F8F8E8E53
:103750008D8C8C8B8B8A89898888878786858584E0
:1037600084838382828181800000FF070000F87FCC
:103770004FEA41034FEA5353A3F58063D3F11E038D
:10378000C8BFD3F1210C0CDD4FF0004242EAC12248
:1037900042EA505232FA03FC8CEAE17CACEBE17075
:1037A0007047102BC4BF0020704703F5787CBCF134
:1037B000FF3F04D06FF0004282EA2100704770B5ED
:1037C00000F016F94992248000207047F2E710F0CB
:1037D000004248BF4042B0FA80F310FA03F10AD029
:1037E000C3F11D0303F580634FEA415002EB03521E
:1037F00002EBD12170474FF000007047B0FA80F320
:1038000010FA03F10AD0C3F11D0303F580634FEAF8
:1038100041504FEA035202EBD12170474FF00000B4
:103820007047000051EA030C17D41CF5801F58BFE5
:10383000BCF5801F00F10680994218BF704708BF91
:103840009042704707D711F5801F58BF13F5801FAE
:1038500019D499427047894270471CF5801F08D5DA
:10386000BCF5801FF7D58B4218BF704708BF824256
:1038700070474FF4001C1CEB410F38BF1CEB430F8B
:1038800001D28B42704770B500F0B2F89224490023
:103890004FF000514FF08053FFF706BEDFF848C1EC
:1038A00070B51CEA111E1EBF1CEA13159EEA0C0F10
:1038B00095EA0C0F00F06F8081EA030423EA4C13B1
:1038C0004EEAD47E21EA4C1141F4801143F4801376
:1038D000AE44A1FB024CA0FB0365AEF17F7E36191E
:1038E00055EB0C05A1FB034C4CF10003A0FB021CA3
:1038F00016EB0C06654153F10003094218BF46F070
:10390000010613F4007F0BD14FEA03314FEA053073
:10391000340341EA155140EA16506FF003020AE001
:103920004FEAC3214FEAC520F40241EA555140EA6B
:1039300056506FF0020202EB2E4201EB025585EA6F
:10394000CE710AD05FEA440C18BF24F0004450F155
:10395000000041F1000120EAD47040F2FE7C624593
:1039600000D270BDA84214BF4FF080444FF04044D5
:10397000002E08BF0024BEF1806FA8BFA1F1C04196
:10398000BDE8704080F282804FF0000001F1C0413C
:1039900001F0004170479EEA0C0F0CEA131518BFA6
:1039A00095EA0C0F06D04FF0000081EA030E0EF0EE
:1039B000004170BD00F01CF88900013E00F007B81E
:1039C00000F009B84FEA430C5FEA5C5C08D081EA7A
:1039D000030100F05BB84FEA410C5FEA5C5CF6D192
:1039E0004FF00000014970470000FF070000F87F1A
:1039F0000EF1020E2EF0030E5EF8046B364205D473
:103A0000012A43EB030515F5001F12D8012841EBED
:103A1000010C1CF5001F0CD80ED14FEAD17C15F516
:103A2000001F0CEB4C0C0CF1020C08BF4CEBD37CD0
:103A300004E04FF0080C01E04FEAD37C0CEB4C059E
:103A400026FA05F606F00706B6F1040C06D20EEBD0
:103A5000860CBDE870404CF0010C6047DFE80CF0CC
:103A6000090B02024FF000414FF00000A1F50021C8
:103A700070BD19461046012851EB010418BFD4F55A
:103A8000001484BF002001F0004170BD0808A0F5BB
:103A900000114FEA3101704753EA010C17D41CF5AD
:103AA000801F58BFBCF5801F00F106808B4218BFF5
:103AB000704708BF8242704707D713F5801F58BF71
:103AC00011F5801F19D48B4270479B4270471CF53B
:103AD000801F08D5BCF5801FF7D5994218BF7047E5
:103AE00008BF904270474FF4001C1CEB430F38BFD7
:103AF0001CEB410F01D2994270470FB40CBC03BCC0
:103B0000FFF7C1BE91EA030F10B581F000413FF508
:103B10002BAC83F0004300F0D5B800002DE9F04154
:103B200001F5801CBCF5001FC0F2A9804FEA115CB2
:103B300021EA0C510CF1FD0C41F480115FEA5C0CA0
:103B40000CF5C07C01D34000494130A4890241EA10
:103B5000905187028E0E0A0CA45D04FB04F602FB52
:103B600006F6C6F14046A4FB0662F60D46EA42267A
:103B700006FB06F4A4FB01235242C3F1404338BFC5
:103B80005B1EA6FB02420024E6FB0324D20B42EAA2
:103B90004446A6FB0623A1FB02E2A3FB07E4E3FBEA
:103BA00061426442C2F1404E38BFAEF1010EA6FB45
:103BB00004234FF00002E6FB0E32A2FB0346340062
:103BC000E2FB6264A1FB06E6A4FB07E8E4FB616894
:103BD0007642C8F1405838BFA8F10108A2FB06E4BC
:103BE000A3FB08E5E2FB6854A1FB05E6A7FB04E89C
:103BF000E1FB648618F1200556F10006A809A8F13A
:103C00001B08B10908F03F08B8F10A0F40EA8660C6
:103C10001CD901EB0C51BDE8F08100BFFCF5EEE8CA
:103C2000E2DDD8D3CFCBC7C3C0BDB9B6B4B1AEAC5B
:103C3000A9A7A5A3A19F9D9B9A9896959392908FD3
:103C40008D8C8B898887868584838281A0FB006820
:103C500000FB01F208EB4208B8EB872807D53418BF
:103C600058EB0104D5D5401C51F10001D1E7341ABD
:103C700078EB0104CDD4401E71F10001C9E75FEA81
:103C80004C0C5FEA9C5C0DD105D34FF0000001F0B5
:103C90000041BDE8F081BDE8F04170B5FFF7A8FE36
:103CA0006DDBFFBEBDE8F0414FF0000000497047FA
:103CB0000000F87F10B591EA030F48BF83F000437E
:103CC0003FF552AB841A71EB030C07D212198CF03A
:103CD000004C43EB0C03001B61EB0C01DFF8A4E18B
:103CE0004FEA1154A4EB135C1EEA430F18BF9EEA7F
:103CF000445F00F0B08023EA6E03524221EA04518F
:103D0000C3EB6E0338BF5B1EDCF1200E25D322FA15
:103D10000CFE10EB0E0043FA0CFE41EB0E01CCF151
:103D2000200E03FA0EFE10EB0E0051F10001CCF153
:103D3000200E29D412FA0EF201EB0451BDE8104016
:103D400058BF7047401C1CBFB2F1004F704700289D
:103D50000CBF491C20F00100704712EB020E43EB30
:103D6000030218BF4FF0010E4EEA4202ACF1200CE4
:103D7000DCF11E0E54D943FA0CFE10EB0E0051F18B
:103D8000FF31CCF11E0ED5D50EF1010E12FA0EFE4A
:103D9000404141EB010101EB445C5FEA5C5C10D9FE
:103DA00010EBDE7001EB045138BFBEF1004FBDE8EF
:103DB000104018BF704700280CBF491C20F00100BC
:103DC000704730D24FEAD42C11F5001124F400646E
:103DD0001BD0B1FA81F20B3AA41AA41ED2F120032F
:103DE000914030FA03F31943904001EBCC71002C61
:103DF00001EB0451BDE81040A8BF704701F1C0417C
:103E00004FF0000001F000417047B0FA80F310FA63
:103E100003F100D110BDE41A173C4805C90AE4E7D4
:103E200001EB045110BD491001EB0451BDE81040F5
:103E30004FEA300002E04FF0000170474A0008BF2F
:103E40000042F8D0B2F5001F28BF704701F00041D2
:103E50004FF0000070479EEA445F07D011EA5E0F02
:103E6000BDE8104004BF002100207047BDE81040AD
:103E700070B5FFF7BDFD00BF40DFF63E83F00041A7
:103E8000104670470000E0FF4FF04070E1EE100A6E
:103E90007047000000000000000001020304060754
:103EA000080900000000010203040000CC3E0008E5
:103EB000000000206C000000C4010008383F00082A
:103EC0006C00002024080000E00100080000000051
:103ED0000000000000000000280000002800000092
:103EE0000E000000000000000000000000000000C4
:103EF00000000000000000000000000000000000C2
:103F000000000000000000000000000000000000B1
:103F100000000000000000000000000000000000A1
:103F20000000000000000000010000001000000080
:083F3000000000000024F40071
:040000050800018965
:00000001FF
